:020000040000fa
:080000000004040000000000f0
:020000040000fa
:1000080004800000088000000c80000010800000c0
:1000180014800000bc800000bc800000bc80000090
:10002800188000001c800000208000002480000050
:10003800bc800000288000002c8000003080000078
:1000480034800000388000003c80000040800000c0
:100058004480000048800000bc800000bc80000094
:100068004c80000050800000548000005880000040
:100078005c800000bc800000bc800000bc800000e8
:10008800bc80000060800000648000006880000080
:100098006c80000070800000748000007880000090
:1000a8007c80000080800000bc800000bc800000d4
:1000b800bc80000084800000888000008c800000e4
:1000c800bc80000090800000bc800000bc80000064
:1000d800bc80000094800000bc800000bc80000050
:1000e800bc800000988000009c800000bc8000005c
:1000f800bc800000bc800000bc800000bc80000008
:10010800bc800000bc800000bc800000bc800000f7
:10011800bc800000bc800000a0800000bc80000003
:10012800bc800000a4800000a8800000ac80000013
:10013800bc800000bc800000bc800000bc800000c7
:10014800b0800000bc800000bc800000bc800000c3
:10015800bc800000b4800000bc800000bc800000af
:10016800bc800000bc800000bc800000bc80000097
:10017800bc800000bc800000b8800000bc8000008b
:10018800bc800000bc800000bc800000bc80000077
:10019800bc800000bc800000bc800000bc80000067
:1001a800bc800000bc800000bc800000bc80000057
:1001b800bc800000bc800000bc800000bc80000047
:020000040000fa
:020000040000fa
:10080000efda20000e7f22000e01880000000000b9
:10081000000020000000e000020032000001200083
:10082000200288000c00070020992600010020000b
:1008300011000700000020000000e000020032006c
:1008400000000200000000005a67020000000000e3
:100850000040da000000fe004440a900e00a200049
:100860000000e0000300320000002000a00188002a
:100870004440a80000000600910188008000780034
:100880000000eb0015003700e280400032a0b40009
:100890009101ba00e280400032a0b4009102ba0097
:1008a000e280400032a0b4000002eb00472bde00e3
:1008b000f507b200602ce10004003a000059eb009b
:1008c0008301e900fdff3e00040037006128e100dc
:1008d000010032000082eb00040007001101ba00a1
:1008e0000200e000e8ff3a00000006003159ba00bb
:1008f0008301e9000c0032002159ba008301e900ac
:10090000080032000400e00003003a00e2804000ea
:1009100032a0b400f5ff370011d9ba008301e90015
:10092000faff3a008100e800e180400032a0b40004
:1009300000000600000000000000000000000000b1
:1009400000000000000000000000000000000000a7
:100950000000000000000000000000000000000097
:100960000000000000000000000000000000000087
:100970000000000000000000000000000000000077
:100980000000000000000000000000000000000067
:10099000000000000040da000000fe006022b80005
:1009a000060220000000d0008180d2000482d20024
:1009b0008582d2000000a0000202520083825a0009
:1009c000030031000202420083824a000000a100bd
:1009d0000603e900f3ff3a0000000600e68747003f
:1009e0008e1f780066875700d0bf9f00012f7800c8
:1009f0000e0037005fbb9700efba970016407800f3
:100a0000154278000201e900844f500004003200d2
:100a10000080fb000482fb00040050000600370049
:100a20000603e800d6bf9f00050fe800e00f510065
:100a3000f0ff3a00020078004f0778006f00b10025
:100a4000000006000002780002003700315a7800ea
:100a50000201e900e00f5100fcff3a00000006002f
:100a60000002780002003700015a78000201e90014
:100a7000e00f5100fcff3a00000006000002780081
:100a80008042eb00b4cf1200fdff3a000080ea0084
:100a90000000420000000600000278000600370057
:100aa000314378000201e900065a78008402780098
:100ab000e04f53000600320084027800e00f51003e
:100ac000f7ff3a0002003700805aeb000201e9000c
:0c0ad000e00f5100fcff3a00000006009f
:020000040000fa
:100adc0000950000000000000000000001f900007b
:100aec000000000000000000088700000400000067
:100afc000000000009af0000000000000100000031
:100b0c000a1b000000000000010000000cc30000e4
:100b1c0001000000000000000daf0000020000000a
:100b2c000000000010ff00000000000000000000aa
:100b3c0011ff0000000000000100000012ff000087
:100b4c00000000000100000018ff00000000000081
:100b5c000100000019ff000000000000010000006f
:100b6c0020ff0000000000000000000021ff00003a
:100b7c00000000000000000026df00000100000063
:100b8c0000000000377300000000000000000000af
:100b9c003a25000004000000000000003b25000086
:100bac00000000000000000029ff0000040000000d
:100bbc000000000017ff0000000000000000000013
:100bcc0021230000242500002627000028290000ee
:100bdc002d4000005e5f0000607b00007d7e000009
:100bec00205c00002f3a00002a3f0000223c00004d
:100bfc003e7c00002e2e000000000000645000001f
:100c0c003850000096580000725000003e52000010
:100c1c0060570000c85700005445000053540000b2
:0c0c2c002e4800004558000000000000a9
:020000040000fa
:100c38000200fa00000f78001e027800f4698800ac
:100c48000080fa00000006000200fa000002eb0033
:100c5800040f780065003700c4d320001e0242004c
:100c680015c0b300054a7800058020001e027800f0
:100c78004922dd00048342009e02780024032000fc
:100c880004aab90084027800a4d220000482420099
:100c9800f50f20008502630094437800e0c36300e9
:100ca80085c27300054a7800c832de0014439000fc
:100cb80060436300854273001542980005a0200038
:100cc8001e0278004922dd00048342009e0278005b
:100cd8002403200004aab90084027800c4d22000aa
:100ce80004824200f50f20008502630094437800d7
:100cf800e0c3630085c27300054a7800c832de008d
:100d080014439000604363008542730015429800c5
:100d18001e0278006c22b9008402780004d42000f6
:100d2800048342009e0278002403200004aab9002c
:100d380084027800e4d2200004824200f50f2000eb
:100d48008502630094437800e0c3630085c27300a2
:100d5800054a7800c832de001443900060436300ff
:100d680085427300154298001e0278006c22b90073
:100d78008402780084d4200084824200150278001e
:100d88000400a100840a78001e0278006c22b900d1
:100d98008402780084d420008482420015027800fe
:100da8000410a100840a78001e0278006c22b900a1
:100db8008402780004d42000048342000082eb00ff
:100dc8008082eb00048bbe001e0278006c22b90002
:100dd8008402780044d42000048342000082eb009f
:100de8008082eb00048bbe001e0fe8001e02780014
:100df800e00f520098ff34000002eb00846a88007c
:100e08006022b800646a8800756a880014002000af
:100e1800040078000080fa00000006000000fa00d4
:100e280089ff070000027800040078000080fa00bb
:100e3800000006000400fa00000f7800110798006f
:100e48001e027800140290001e00900004000100a9
:100e580000427800044078000080fa000000060094
:100e68000400fa00204798000042eb00044f780085
:100e78001d0037001e4278008482fb00c4d3200086
:100e88000482420014427800e04f520015003a00f4
:100e98001e4278008482fb002403200004aab900c3
:100ea800040278000503200084824200b4d02000a8
:100eb80004824200944278002e42900084cf52006f
:100ec80008003a001e4278008482fb0024032000b8
:100ed80004aab90084027800a4d020000482420049
:100ee800050037001e4fe8001e427800e04f520010
:100ef800e0ff32000002eb00040078000080fa00f6
:100f0800000006000400fa00204798002e409000d8
:100f1800d3ff070000027800040f78001e02780053
:100f2800e00f520002003a000002eb000300370015
:100f38001e027800646a90000482fb0004007800b6
:100f48000080fa00000006000e00fa00004f98002a
:100f580051079800620798000002eb00040f780020
:100f68000e489000beff07000002780014079800a2
:100f78001e029000e00f52003c003a000042eb00d5
:100f880044479800360037004e4290008482fb00a8
:100f9800c4d320000482420014427800e04f52007b
:100fa8002c0032004e4290008482fb00c4d3200003
:100fb800048242008042eb00054a78004e429000cd
:100fc8008482fb002403200004aab900840278006c
:100fd800b4d32000048242008e4a9000054a78006b
:100fe8004e4290008482fb002403200004aab9002a
:100ff8008402780004d32000048242005e0390003b
:10100800f50f2000850263001443780060436300f5
:1010180085427300054a7800de029000c82ade0087
:1010280014439000604363008542730015429800a2
:101038004e4290008482fb002403200004aab900d9
:1010480084027800a4d0200004824200140798008b
:10105800060037004e4290000442e80044479800da
:101068004e429000e04f5200c7ff32001e0290002f
:10107800e00f520002003a0034022000a5003700b9
:101088004e4290000482fb006c22b9008402780072
:1010980084d4200084824200150278000400a10054
:1010a800840a78004e4290000482fb006c22b9004a
:1010b8008402780084d420008482420015027800db
:1010c8000410a100840a78004e4290000482fb00bc
:1010d8006c22b9008402780004d420000483420002
:1010e8000082eb008082eb00048bbe004e42900031
:1010f8000482fb006c22b9008402780044d42000ea
:10110800048342000082eb008082eb00048bbe0067
:101118001e0290006e039000f50f20008502630008
:10112800046b90006043630085427300056a980071
:10113800ee029000c82ade00146b90006043630042
:1011480085427300156a98005e02900014027800c8
:10115800e00f5200040032005e0290001402780092
:101168006e009000040001005e02900024029000ce
:101178006e00900004000100000278003407980017
:101188003e02900014027800e00f52000300320083
:1011980064002000040f7800260037003e0290000b
:1011a8001402900061026200e00f52002100320038
:1011b8003e029000240290006123b8001e029000b5
:1011c800f50f20008502630004589000604060001d
:1011d80085427000055a9800c832de001458900005
:1011e8006040600085427000155a9800f50f200095
:1011f800858263002458900060406000854270003a
:10120800255a9800c83ade00345b900060436300ba
:1012180085427300355a98003e029000a40290005f
:1012280004202000848f520002003600440220006f
:10123800040f78001e027800e00f52000b003a00fd
:101248001e0090003600070000027800040f7800a6
:101258001e027800e00f520004003a001e009000c1
:101268008d01070000027800040f78001e02780044
:10127800e00f520017003a00846a8000e00f520025
:1012880023003a001e029000846a88001e03900022
:10129800c64b90008783fb00564890000080fb00f7
:1012a8004800dd008083730007027800e64b900059
:1012b8008783fb00764b90000683fb004833dd00f4
:1012c8000683730086027800646a8800756a88005d
:1012d8000f0037004e4290008482fb002403200058
:1012e80004aab90084027800b4d320000482420022
:1012f8008042eb00054a78004e4290008482fb0051
:10130800c4d320000482420015c0b300054a780007
:101318001e027800040078000080fa000000060031
:101328001000fa007007980014c0b300044f78004a
:101338000002eb00140798007e029000e46290001f
:101348008582fb00746290000482fb004822dd0065
:1013580004827200440390007e0290008462900030
:101368008582fb00146290000482fb004822dd00a5
:1013780004827200840278007e029000846b9000e0
:101388008783fb00146a90000482fb004822dd007a
:1013980004827300850078006011b80004007800aa
:1013a80006000100004278000404a200e04f520049
:1013b800030032008400200014079800320137002f
:1013c8007e029000c46290008582fb005462900007
:1013d8000482fb004822dd000482720004037800c6
:1013e8006022b800048bbe007e02900084629000e8
:1013f8008582fb00146290000482fb004822dd0015
:1014080004827200440798004e029000e4fa9300a8
:1014180054c5b30084cf52007f003a004e029000ba
:10142800f4fa9300a4cab30084cf52007a003a00b9
:101438004e029000e472900064c4b30084cf52005e
:1014480027003a004e029000f472900014c4b300d2
:1014580084cf520022003a004e029000847a900015
:1014680044c5b30084cf52001d003a004e029000dc
:10147800947a900014c3b30084cf520018003a0045
:101488004e029000e462900094c2b30084cf5200f0
:1014980013003a007e02900094427800e0c2620095
:1014a800054a780094429000e0c262001542980014
:1014b800a4429000e0c2620025429800b442900025
:1014c800e0c26200354298007e02900025c0b30059
:1014d800656a98000042eb00044f78004e00370020
:1014e8007e029000846290008582fb001462900066
:1014f8000482fb004822dd00048272002405b0004b
:101508009442780064c4b30084cf520042003a0089
:101518007e029000846290008582fb001462900035
:101528000482fb004822dd00048272003405b0000a
:101538009442780014c4b30084cf520036003a00b5
:101548007e029000846290008582fb001462900005
:101558000482fb004822dd00048272004405b000ca
:101568009442780044c5b30084cf52002a003a0060
:101578007e029000846290008582fb0014629000d5
:101588000482fb004822dd00048272005405b0008a
:101598009442780034c3b30084cf52001e003a004e
:1015a8007e029000846290008582fb0014629000a5
:1015b8000482fb004822dd00048272002404b0008b
:1015c8009442780094c2b30084cf520012003a00cb
:1015d8007e02900094427800e0c26200054a7800da
:1015e80094429000e0c2620015429800a442900024
:1015f800e0c2620025429800b4429000e0c2620056
:10160800354298007e02900035c0b300656a9800a4
:101618000042eb00044f78001e427800e04f520071
:10162800990032007e029000846290008582fb005f
:10163800146290000482fb004822dd0004827200dc
:10164800540798005e029000e4fa930054c5b30072
:1016580084cf520005003a005e029000f4fa93002d
:10166800a4cab30084cf5200030032004400200013
:1016780014079800840037005e029000e41bb00055
:10168800340798007e0290008042eb00656a98005b
:101698000042eb0044479800500037003e0290009b
:1016a800844a90008582fb00144890000080fb006b
:1016b8004800dd008082720005037800a44a90008b
:1016c8008582fb00344a90000482fb004822dd003a
:1016d80004827200840378007e029000f50f2000d7
:1016e8008502630014407800604060008542700005
:1016f800054a7800c832de0014409000604060005f
:101708008542700015429800f50f2000858263001d
:101718002440900060406000854270002542980097
:10172800c83ade003443900060436300854273008a
:10173800354298003e029000c4429000454f980000
:101748004e4a90000482fb00ee0f520019003e0042
:1017580015002000042add0005052400850262002a
:10176800e08f52000b003a000580210085026200dc
:10177800e08f52000b003a0062026200e00f520054
:101788000c0032007e02900015c0b300656a980014
:10179800080037007e02900025c0b300656a9800f3
:1017a800040037007e02900035c0b300656a9800d7
:1017b800000000007e029000646a9000e04f520032
:1017c8000a003a003e029000700242003407980076
:1017d8004e4290000442e800444798004e42900070
:1017e800e34f5200adff3600010037000000000053
:1017f8007e029000646a9000e04f520022003a0096
:101808007e039000865b90008783fb00165890004b
:101818000080fb004800dd00808373000702780029
:10182800a65b90008783fb00365b90000683fb0075
:101838004833dd000683730086027800e00f52000b
:10184800e08f5a000e003a007e029000845a900001
:10185800e0c26200055a9800945a9000e0c2620003
:101868000514a000155a9800a45a9000e0c262001e
:10187800255a9800b45a9000e0c26200355a980080
:101888000002eb00140798001e0290000400780084
:101898000080fa00000006001800fa00889fbe00c9
:1018a800300f98000002eb00040f78000042eb00b4
:1018b800644798000042eb00744798003e0a900085
:1018c800e46290008582fb00746290000482fb0051
:1018d8004822dd0004827200440490003e0a900011
:1018e800846290008582fb00146290000482fb00f1
:1018f8004822dd0004827200840378003e0b9000c9
:10190800964078000180fb00964090008180fb00a3
:10191800c808dd0001007000000278002640900031
:101928000080fb00364390000683fb004833dd004f
:1019380006037000860278003e0b9000066890004f
:101948000080fb00166b90000683fb004833dd0027
:1019580006037000870078000401be0006007800c6
:1019680008000100004278000404a200e04f520081
:101978000300320084002000040f78003d03370084
:101988003e0a9000c46290008582fb005462900079
:101998000482fb004822dd00048272008403780080
:1019a8003e0b9000164278000480fb0096409000a1
:1019b8008180fb00c808dd0001007000000278008b
:1019c800264090000080fb00364390000683fb0011
:1019d8004833dd000603700086027800848bbe0061
:1019e8003e0a9000846290008582fb001462900099
:1019f8000482fb004822dd0004827200440798003c
:101a08004e029000e4fa930054c5b30084cf52000c
:101a180005003a004e029000f4fa9300a4cab300fd
:101a280084cf52000300320034002000040f7800f5
:101a38005c0237003e0a9000846290008582fb00b9
:101a4800146290000482fb004822dd0004827200c8
:101a5800e1002000040078002b2107000002780034
:101a6800540798003e0a9000846290008582fb002b
:101a7800146290000482fb004822dd000482720098
:101a88006d024200944278003e0a9000556a980020
:101a98003e0b9000164078008083fb0016409000b3
:101aa8000080fb004800dd00808373000702780097
:101ab800a64390008783fb00364390000683fb0013
:101ac8004833dd0006837300860278005e039000c9
:101ad800070020000403430085834b003e0a900062
:101ae800f50f2000850263004440900060406000cc
:101af8008542700045429800c832de00544090008c
:101b0800604060008542700055429800f50f200043
:101b180085826300644090006040600085427000e8
:101b280065429800c83ade00744390006043630041
:101b380085427300754298003e0a900084629000c6
:101b48008582fb00146290000482fb004822dd00bd
:101b58000482720070024200944278003e0a9000ab
:101b6800456a98003e0a9000846290008582fb00d6
:101b7800146290000482fb004822dd000482720097
:101b88006101200004007800df20070000027800cf
:101b98006123b8003e0a9000f50f2000850263001b
:101ba800445890006040600085427000455a980093
:101bb800c832de00545890006040600085427000d2
:101bc800555a9800f50f20008582630064589000ec
:101bd8006040600085427000655a9800c83ade008f
:101be800745b90006043630085427300755a9800e7
:101bf8003e0b9000c65b90008783fb005658900010
:101c08000080fb004800dd00808373000702780035
:101c1800e65b90008783fb00765b90000683fb0001
:101c28004833dd000683730086027800e00f520017
:101c3800e08f5a0022003a003e0a90008462900029
:101c48008582fb00146290000482fb004822dd00bc
:101c5800048272004102200004007800c4200700ba
:101c68000003be003e0a9000f50f200085026300c5
:101c7800445890006040600085427000455a9800c2
:101c8800c832de0054589000604060008542700001
:101c9800555a9800f50f200085826300645890001b
:101ca8006040600085427000655a9800c83ade00be
:101cb800745b90006043630085427300755a980016
:101cc8003e0a9000c44290008582fb005443900075
:101cd8000683fb004833dd00868272000500780029
:101ce800e44290008582fb00744290000482fb006d
:101cf8004822dd0004827200840078003e0a9000c9
:101d0800446a90000483fb00070020003e0990000d
:101d1800c25990008381fb00525c90000884fb004c
:101d28004844dd008881710003027800e259900080
:101d38008381fb00725990000281fb004811dd008d
:101d4800028171008202780004b9b90002017800aa
:101d580006acb90088017800030141000603780049
:101d6800040278000432b8000501410082027800bc
:101d78000003420081834a003e0a9000f50f2000cc
:101d8800850263000448900060406000854270004e
:101d9800054a9800c832de00144890006040600090
:101da80085427000154a9800f50f2000858263006f
:101db800244890006040600085427000254a9800e1
:101dc800c83ade00344b90006043630085427300dc
:101dd800354a98003e0a9000846290008582fb0094
:101de800146290000482fb004822dd000482720025
:101df80011012000040078004320070080027800c9
:101e08003e0a9000f60f200006836200a46b900043
:101e1800e0c3630006c37300266a9800c82ade0080
:101e2800346b90006043630085427300356a980004
:101e38003e0a9000846290008582fb001462900044
:101e48000482fb004822dd00048272003101200078
:101e5800040078002c20070000027800050020000c
:101e680014079800250798001e029000ae02900003
:101e7800e00f5200e08f5a000d003a003e0a900031
:101e8800846290008582fb00146290000482fb004b
:101e98004822dd000482720001022000040078005c
:101ea800332007000002be00140798002507980099
:101eb8003e0a9000846290008582fb0014629000c4
:101ec8000482fb004822dd0004827200b100200079
:101ed800040078000c2007000002780064079800ce
:101ee8006e029000e00f5200050032006e02900072
:101ef8006102620004427800e04f520003003200a1
:101f080044022000040f7800260137003e0a9000a2
:101f1800a46a90008582fb00346a90000482fb006a
:101f28004822dd0004827200c522dd006e029000a6
:101f3800048242008402e9006e0290001100090048
:101f48008482d800000278000500200074079800f9
:101f5800050f98005e0290006121b8003e0a9000cb
:101f6800446a90000483fb00070020003e089000ac
:101f7800c05890008180fb00505c90000884fb00f2
:101f88004844dd008880700001027800e058900025
:101f98008180fb00705890000080fb004800dd0045
:101fa800008070008002780004b8b9000000780052
:101fb80006acb900880078000100400006037800ec
:101fc800040278000432b80005004000800278005e
:101fd8000203420083834a007e0290008e0a90002a
:101fe8000602420087824a001e039000ae0390005a
:101ff8000402530085825b00140f9800250f980097
:102008003e0a9000546a90000482fb0005002000fc
:102018000401be001e089000ae0890005dfa07009b
:102028000002be000403be003e0a9000f50f200027
:102038008502630044509000604060008542700053
:1020480045529800c832de0054509000604060004d
:102058008542700055529800f50f20008582630074
:10206800645090006040600085427000655298009e
:10207800c83ade00745390006043630085427300e1
:10208800755298003e0b9000c65390008783fb0062
:10209800565090000080fb004800dd0080837300ec
:1020a80007027800e65390008783fb007653900080
:1020b8000683fb004833dd00068373008602780040
:1020c80046ff200007002000860f5200878f5a0025
:1020d80004003e003e0a900015c0b300656a9800ef
:1020e8001b0037003e0b9000c65390008783fb000f
:1020f800565090000080fb004800dd00808373008c
:1021080007027800e65390008783fb00765390001f
:102118000683fb004833dd000683730086027800df
:1021280046ff2f0007002000860f5200878f5a00b5
:1021380004003e003e0a900025c0b300656a98007e
:10214800030037003e0a900035c0b300656a980066
:102158003e0a9000646a9000e34f52004d003a0036
:102168003e0a9000846290008582fb001462900011
:102178000482fb004822dd0004827200c1022000b4
:10218800040078007a1f07000003be003e0a900092
:10219800f50f20008502630044489000604060000d
:1021a80085427000454a9800c832de0054489000c5
:1021b8006040600085427000554a9800f50f200085
:1021c800858263006448900060406000854270002a
:1021d800654a9800c83ade00744b9000604363007b
:1021e80085427300754a98003e0b9000864b90001c
:1021f8008783fb00164890000080fb004800dd0044
:102208008083730007027800a64b90008783fb0049
:10221800364b90000683fb004833dd0006837300cd
:10222800860278007e0390008e0b90000403430022
:1022380085834b003e0a9000f50f2000850263005d
:10224800045090006040600085427000055298007c
:10225800c832de0014509000604060008542700073
:1022680015529800f50f20008582630024509000d5
:10227800604060008542700025529800c83ade0030
:1022880034539000604363008542730035529800d0
:102298003e0037003e0a9000c44a9000e0c2620047
:1022a800454a9800d44a9000e0c26200554a980016
:1022b800e44a9000e0c26200654a9800f44a90003f
:1022c800e0c26200754a98003e0b9000864b900071
:1022d8008783fb00164890000080fb004800dd0063
:1022e8008083730007027800a64b90008783fb0069
:1022f800364b90000683fb004833dd0006837300ed
:10230800860278003e0b9000a66b90008783fb0046
:10231800366b90000683fb004833dd0006837300ac
:102328004433de00070020000403430085834b008c
:102338003e0a9000f50f20008502630004509000cb
:10234800604060008542700005529800c832de0087
:10235800145090006040600085427000155298004b
:10236800f50f2000858263002450900060406000d3
:102378008542700025529800c83ade003453900018
:10238800604363008542730035529800ee02900066
:1023980004202000848f52000200360044022000ee
:1023a800040f78003e0a9000646a9000e34f5200e0
:1023b8000d0032001e027800e00f5200a600320025
:1023c8004e029000a4c2900094c2b30084cf520081
:1023d800050032004e029000a4c2900084c2b300ef
:1023e80084cf52009e003a004e029000b4529000f2
:1023f8008582fb00445290000482fb004822dd00e5
:1024080004827200e00f52000a003a004e02900067
:10241800a4c2900094c2b30084cf520007003200d7
:102428004e029000a4c2900084c2b30084cf520030
:102438000200320034002000040f78001e027800e9
:10244800e00f5200440032006e4290000404a200e3
:10245800e04f52004000320014c0b30064479800b7
:102468003e0a9000e46290008582fb00746290004e
:102478000482fb004822dd000482720044049000bc
:102488003e0a9000846290008582fb0014629000ee
:102498000482fb004822dd000482720004007800f8
:1024a8003e0b9000164278008483fb009640900013
:1024b8008180fb00c808dd00818373000702780073
:1024c800a64390008783fb00364390000683fb00f9
:1024d8004833dd0006837300860278004e039000bf
:1024e800a67390008783fb00367390000683fb0079
:1024f8004833dd0006837300070020000402430010
:1025080085824b003e0b9000866b90008783fb0012
:10251800166b90000683fb004833dd0006837300ca
:10252800800078000401be00060078000800010061
:10253800004278000404a200e04f52000300320079
:1025480084002000040f78004a0037000002eb00e6
:10255800040f78003f0037001e027800e00f520099
:10256800410032007e4290000404a200e04f520075
:102578003f00320014c0b300744798003e0a900030
:10258800e46290008582fb00746290000482fb0084
:102598004822dd0004827200440490003e0a900044
:1025a800846290008582fb00146290000482fb0024
:1025b8004822dd0004827200840378003e0b9000fc
:1025c800964078000180fb00964090008180fb00d7
:1025d800c808dd0001007000000278002640900065
:1025e8000080fb00364390000683fb004833dd0083
:1025f800060370008602780066024200e0824a0004
:102608003e0b9000066890000080fb00166b90005f
:102618000683fb004833dd0006037000870078005e
:102628000401be000600780008000100004278009e
:102638000404a200e04f520003003200840020008e
:10264800040f78000b0037000002eb00040f78003d
:1026580000000000eafc3700000000000500370019
:1026680000000000030037000000000001003700f0
:10267800000000001e027800040078004f04be002d
:102688000080fa00000006000600fa0040479800a3
:102698004e409000f2f907000002780014079800f5
:1026a8001e029000e00f520002003a000082eb0088
:1026b8004e003700110020001e009000cf0a0700ce
:1026c8008000eb001e009000cc0a07001e0290005c
:1026d800e46290008582fb00746290000482fb0033
:1026e8004822dd0004827200b40290001e029000ad
:1026f800046b90000683fb00146a90000482fb00c0
:102708004822dd000402730004007800050001007f
:102718000042eb00044f7800270037001e42780083
:102728008482fb002403200004aab9000402780074
:102738000503200084824200b4d0200004824200b5
:10274800944278004e42900084cf520019003a001b
:102758001e4278008482fb00c4d320000482420019
:1027680015c0b300054a78001e4278008482fb0039
:102778002403200004aab9008402780094d320001e
:10278800048242008042eb00054a78001e4278002d
:102798008482fb002403200004aab9008402780084
:1027a800b4d32000048242008042eb00054a78003e
:1027b800040037001e4fe8001e427800e04f520028
:1027c800d6ff3200856a80001e029000848f520076
:1027d80005003a006022b800646a8800756a8800bb
:1027e8000002eb00846a88000002eb000400780015
:1027f8000080fa00000006000c00fa00400798006c
:10280800214f980014002000140798000042eb00a4
:10281800444798000042eb00544798004e0290004d
:1028280094427800e4c2b30084cf520099003a0081
:102838004e0290000402e8001442780064479800b1
:102848006e429000e04f520004003200ee429000c9
:10285800f4c2b30084cf520002003a0034c0b3007f
:10286800a4003700ee429000e4c2b30084cf5200c7
:102878008a003a004e0290000482e8001442780070
:10288800644798006e429000e04f52000400320006
:10289800ee429000f4c2b30084cf520081003a00a7
:1028a80034c0b300930037001e029000e10f5200bd
:1028b80055003a005e4290000442e80054479800f0
:1028c800ee42900004c4b30084cf520004003600e6
:1028d800ee429000a4c5b30084cf52003c003600fd
:1028e800ee429000f4c2b30084cf520004003600d8
:1028f800ee42900094c3b30084cf520034003600f7
:102908006e429000e04f520031003500ee429000d8
:10291800e4c2b30084cf52000c003a004e4290004b
:102928000404a200e04f52000500320014c0b300b6
:10293800444798000042eb005447980024003700b1
:102948002400200014079800210037000042eb0003
:10295800044f7800080037009e4278000582fb008b
:10296800655e2800e5427a006e42900084cf5200ee
:10297800050032001e4fe8001e427800f04f52005a
:10298800f5ff360001003700000000001e42780005
:10299800f14f52000e003a002e4a90000404a200a3
:1029a800e04f520008003a00ee429000f4c3b30032
:1029b80084cf520006003200ee429000a4c2b30059
:1029c80084cf52000200320024002000140798002f
:1029d8004e429000e04f5200060032005e429000e6
:1029e800e34f520008003600240020001407980026
:1029f800050037005e429000e84f520002003600a2
:102a080024002000140798001e029000e20f5200d4
:102a180025003a000042eb00044f78001900370007
:102a28009e4278000582fb00755f2800e5427a0027
:102a38006e42900084cf520011003a002e4a900056
:102a48000404a200e04f520008003a00ee42900051
:102a5800f4c3b30084cf520009003200ee42900064
:102a6800a4c2b30084cf5200050032000002eb007c
:102a7800140798001e029000044278001d003700d9
:102a88001e4fe8001e427800e84f5200e4ff36006f
:102a980005003700000000000300370000000000b8
:102aa80001003700000000004e0290001442780038
:102ab800644798006e4290000482fb000402ea001a
:102ac8004f22de0004427800ce0290008502e80022
:102ad80045079800e04f520004003200ee42900093
:102ae800f4c2b30084cf52006fff3a001e02900078
:102af80004427800044078000080fa0000000600d4
:102b08000600fa0010079800210798000042eb0021
:102b1800044f7800070037009e4278000582fb00ca
:102b2800ae029000048242009e42900075629800b6
:102b38001e4fe8001e029000944278001547980046
:102b48009e429000e4c2b30004c26a000482fb0003
:102b58000402ea004f22de00044278009e02900040
:102b68008502e80015079800e04f52000f00320078
:102b78001e429000e04f52000c0032009e4290002e
:102b8800f4c2b30084cf5200e3ff3a0007003700d5
:102b98009e4278000582fb00ae029000048242004b
:102ba80005c2b300756298001e4fe8001e42780007
:102bb800e74f5200f6ff36009e429000e4c2b30091
:102bc80084cf52001d003a00070037009e4278006b
:102bd8000582fb00ae029000048242009e429000f3
:102be800756298001e4fe8001e029000944278001b
:102bf800154798001e4290000482fb000402ea0078
:102c08004f22de00044278009e0290008502e80010
:102c180015079800e04f5200ecff3a000700370014
:102c28009e4278000582fb00ae02900004824200ba
:102c380005c2b300756298001e4fe8001e42780076
:102c4800ea4f5200f6ff36000080fa000000060046
:102c58001a00fa00200f9800310f9800420f9800d0
:102c68000002eb00140f9800680247000041eb00d7
:102c7800be089000040078003201070000027800c6
:102c8800340f98003e0a9000e00f520002003a000c
:102c98000082eb00d60037004e029000de02900062
:102ca80074079800050f98006e029000e462900087
:102cb8008582fb00746290000482fb004822dd00dc
:102cc80004827200e40290006e029000046b90008f
:102cd8000683fb00146a90000482fb004822dd0092
:102ce8000402730004007800050001000042780027
:102cf800e04f5200090032004e0a90006e02620056
:102d0800e00f5200050032006e029000a5c1b3002a
:102d1800057298000082eb00b50037002e0a90007b
:102d2800e00f520005003a006e02900025c2b30081
:102d3800057298000082eb00ad0037008040eb0080
:102d48003e089000acfe0700004278002447980037
:102d58002e429000e14f52001c003a004e029000b3
:102d6800de02900074079800050f98000002eb003f
:102d7800140f9800ae0890003e08900060ff07000e
:102d88002e0a90007402b000840078007202470096
:102d98006e01470068004700270020000003eb0091
:102da8008002eb008201780001017800ae089000f3
:102db800a103070000027800040f78001e027800c3
:102dc800e00f520006003200240037006e02900027
:102dd80035c1b300057298000082eb00840037000b
:102de8004e0a900068026200e00f520008003a00a4
:102df80068024700ae089000040078007f000700d2
:102e0800004278000404a200e04f52000e00320095
:102e18002e0a9000740a9000340798006602470052
:102e280012c0b300840078002e0890000b0d070034
:102e380000027800040f78004e0a90000420a000d9
:102e4800440f98001a003700ce0a9000b4ff2f00f4
:102e580004826200440f9800150037001e027800b3
:102e6800ef0f520012003a004e0a9000640262000e
:102e7800e00f52000e0032000002eb00040f780051
:102e8800ee0290002e0a9000450a98004e0290002b
:102e9800de0290002e0b9000048bbe004e029000c4
:102ea800de0290002e0b9000240398003503980052
:102eb8001e027800e00f520011003a004e0a9000fe
:102ec80064026200e00f52000d0032000002eb00c5
:102ed800340798006602470013c0b3000041eb00b6
:102ee800840078002e0890001d0407000002780076
:102ef800040f78004e0a90000440a000440f980088
:102f08001e027800e00f52002f003a004e0a90008f
:102f18006102620004427800e04f5200050032006e
:102f2800ae0a9000151a90000410a000941a980098
:102f380004003700ae0a9000151a90000410a10092
:102f4800941a98004e0a900062026200e00f520044
:102f580005003200ae0a9000151a90000400a00087
:102f6800941a980004003700ae0a9000151a9000d1
:102f78000400a100941a98004e0a900070026200a2
:102f8800e00f520010003200210020006011b8004c
:102f98002e08900099110700000278002407980075
:102fa8002e029000e00f520003003200c4012000fe
:102fb800040f780004003700ce0a9000f4fe2f00ba
:102fc80004826200440f98001e027800e00f52004d
:102fd800060032006e0290009e027800854278005a
:102fe800057298000082eb00010037000002eb0038
:102ff800040078000080fa00000006000e00fa00c5
:1030080050079800610798006e0290001402be00f5
:1030180024079800350798000002eb004407980041
:103028002e029000be029000e00f5200e08f5a007e
:1030380012003a005e02900024039000c64b9000f4
:103048008783fb00564890000080fb004800dd00a5
:103058008083730007027800e64b90008783fb00ab
:10306800764b90000683fb004833dd00068373002f
:103078008602780024079800350798006e029000b1
:10308800740a9000e8034700640347008e82e80052
:103098008701780006017800850078005e009000be
:1030a8000907070000027800040f78001e02780064
:1030b800e00f520002003a000042eb000b0037001c
:1030c8001e027800240a9000e00f520006003a0021
:1030d8001e027800540a9000e00f520002003a00e5
:1030e8000042eb000100370014c0b3000440780030
:1030f8000080fa00000006000600fa002007980089
:103108002e029000240a900005002000048fbe00c3
:103118001e02be00c022dd0004002000048fbe0095
:103128002e029000540a9000050020001e1f720015
:103138001e9772001e02be000400be000080fa0046
:10314800000006000a00fa002007980031079800de
:10315800024f98003e00900046f6070000027800f3
:10316800040f78001e027800e00f520002003a00b7
:103178000002eb008400370062002000c1d4200068
:103188002e0090002df607001e027800e10f520075
:1031980002003a003e0290007b0037003e02900099
:1031a8000402e80094427800a4c3b30084cf52001c
:1031b8006b003a003e029000144278000440780008
:1031c80027f7070000027800ae029000a4029800da
:1031d8002e02900024029000e00f520002003a00f4
:1031e8000002eb00680037002e02900024039000d4
:1031f800c64b90008783fb00564890000080fb0078
:103208004800dd008083730007027800e64b9000d9
:103218008783fb00764b90000683fb004833dd0074
:1032280006837300860278002e039000048bbe008c
:103238003e0290000482e800340798001e8fe900df
:103248001e027800e00f520002003a003e02900091
:103258004d0037003e02900094427800f4c2b3005b
:1032680084cf52003e003a003e0290000402e8007b
:10327800340798001e0fe9001e027800e00f520084
:1032880037003a003e0290003f003700be0290002f
:103298001e0290000482420094427800f4c2b300f7
:1032a80084cf520007003a001e0290000402e80092
:1032b800be0290000482420014427800e04f52009f
:1032c8002f0032001e029000e00f52001b00320057
:1032d800be0090002e0090004e000700000278000b
:1032e800e00f5200150032000e4a9000e04f5200e5
:1032f80010003200be0090002e009000af000700c2
:1033080000027800e00f5200020032000002eb00d9
:103318001d003700be0090002e0090003d00070001
:1033280000027800e00f5200040032000002eb00b7
:10333800150037000002eb00130037001e02900052
:103348000402e80014079800be0290001e029000d4
:1033580004824200340798001e0290001e0f1200db
:103368003e0090000b000700000278001407980048
:103378001e029000e10f4200c4ff3a00010037002e
:10338800000000003e029000040078000080fa006f
:10339800000006000600fa00200798000002eb0073
:1033a800040f7800010037001e0fe8002e0290007d
:1033b80094427800254798002e4290000482fb0032
:1033c8000402ea004f22de0004427800ae029000b8
:1033d8008502e80025079800e04f520004003200fb
:1033e800ae429000f4c2b30084cf5200eeff3a0020
:1033f8002e429000e04f520002003a000082eb009b
:10340800010037001e027800040078000080fa00ee
:10341800000006004600fa001027980021279800af
:103428006e0f47008040eb002e209000f2fc070052
:1034380000427800244798002e429000e04f520046
:1034480006003a001e2290002402900035c1b30005
:10345800057298000082eb00550037002e4290005c
:10346800e14f52001c003a001e2290001402be00d8
:1034780044079800550798000002eb00640798007d
:103488009e0078002e2090009dfd07007502200008
:103498001e824200040078006c024700e8004700e2
:1034a80027002000f60320008002eb00810178004d
:1034b800000178009e0078001e209000de010700c1
:1034c80000027800340798003e029000e00f520096
:1034d8002f003200350037002e429000e34f520093
:1034e80025003a002e2290000402e8009442780059
:1034f800e4c2b30084cf5200020032000002eb00a5
:103508002b0037001e2290001402be0044079800ca
:10351800550798000002eb0064079800ec03470089
:1035280068034700e602470014002000870178007e
:1035380006017800850078001e209000e20507004b
:1035480000027800240798003e029000e00f520025
:1035580007003a002e009000e7fe07000002be00b8
:103568001e239000048bbe000002eb001000370001
:103578000082eb000e0037001e229000240290000b
:1035880035c1b300057298000082eb0008003700cf
:103598001e027800d4029000440290001e2390007e
:1035a800048bbe000002eb00010037000082eb0034
:1035b800040078000080fa00000006005600fa00b7
:1035c800102f9800212f98007002470024079800b8
:1035d8000002eb00542798000002eb00042f98002b
:1035e8001e2a90001402be00040f9800150f9800c0
:1035f8000e0a90009e0a9000e00f5200e08f5a00d9
:1036080012003a001e2a900024039000c64b900036
:103618008783fb00564890000080fb004800dd00cf
:103628008083730007027800e64b90008783fb00d5
:10363800764b90000683fb004833dd000683730059
:1036480086027800040f9800150f98001e2a900033
:1036580024029000441798008040eb002e28900028
:1036680065fc070000427800644798006e429000ad
:10367800e04f5200030032006e429000e34f5200c8
:1036880006003a001e2a90002402900035c1b300bb
:10369800057298000082eb00920037006e4290009d
:1036a800e14f52000e003a00ae0090002e28900024
:1036b80013fd0700a40420000e02420013c0b3004b
:1036c80002c1b300840078002e0090002402070095
:1036d80000027800e00f520007003a0008003700a7
:1036e8001e2a90002402900035c1b300057298008c
:1036f8000082eb007b0037000082eb007900370086
:103708000e0890009e0890004e1290000403780066
:10371800c64b90008783fb00564990000281fb004e
:103728004811dd008283730007027800e64b9000a1
:103738008783fb00764b90000683fb004833dd004f
:103748000683730086027800840f5000858f580026
:1037580003003a006022b800048fbe00030037005f
:103768000e0a90009e0a9000048fbe000e0a900078
:103778009e0a9000240f9800350f98000e0a9000ba
:103788009e0a90001e2b9000048bbe000e0a90002b
:103798009e0a900064279800752798005e22900082
:1037a800070520008e834300c60420000e03430053
:1037b800ee0247008701780006017800850078004e
:1037c8001e28900040050700000278004407980072
:1037d8004e029000e00f520007003a001e2a9000a7
:1037e80024029000fe02900085427800057298003d
:1037f8000082eb003b0037004e029000544a9000d4
:1038080004cf98004e02900074029000342798006c
:103818004e029000040a9000242798004e00900061
:1038280035fe07000002be0054079800650798009f
:103838004e0a9000de0a90001e2b9000048bbe00fa
:103848004e0a9000de0a90006427980075279800b9
:103858000002eb00042f98000002eb0054279800a8
:103868005e229000070520008e834300c6042000d6
:103878000e034300ee024700870178000601780036
:10388800850078001e2890000f05070000027800c8
:10389800440798000e0a90009e0a90001e2b900084
:1038a800048bbe001e2a90002403900044042000cc
:1038b8000e024200840078001e02be005e019000e5
:1038c800ee01900006007800090007000002780069
:1038d800e00f5200020032000002eb000100370046
:1038e8000082eb00040078000080fa000000060067
:1038f8001200fa0030079800420798005307980012
:103908006407980075079800010f98003e0390001f
:10391800865b90008783fb00165890000080fb00b0
:103928004800dd008083730007027800a65b9000e2
:103938008783fb00365b90000683fb004833dd007d
:103948000683730086027800840278003e029000a5
:10395800046390000683fb00146290000482fb005d
:103968004822dd0004027300050178008000eb00a6
:103978000400780038f407003e029000846290004a
:103988008582fb00146290000482fb004822dd005f
:1039980004827200040f78003e0290008462900056
:1039a8008582fb00146290000482fb004822dd003f
:1039b80004827200b2002000010220000400780096
:1039c80025f407001e027800e5c2b300054a780016
:1039d8001e02780005c1b300354a98001e0278001f
:1039e8008042eb00454a9800ce0290001e02780003
:1039f800550a98004e039000de0390000400200052
:103a0800f5ff20000600780007037800840378009b
:103a1800050278000700600004026300050020002a
:103a2800c022dd00040020000403be006102b800cb
:103a38000403730085837300403ade00050020000c
:103a4800840278001e027800250a98001e03780078
:103a58006022b800640b9800750b98000e0a90005d
:103a6800c44290001e027800554a98000e0a900041
:103a7800940290001e027800750298000e0a9000c9
:103a8800940290001e027800050a98001e02780031
:103a98008002eb00150a98001e0278008002eb00f5
:103aa800350a98001e0278008002eb00450a98004b
:103ab8003e029000846290008582fb0014629000b0
:103ac8000482fb004822dd00048272008402780030
:103ad8003e029000046390000683fb00146290008d
:103ae8000482fb004822dd00040273000402b000d7
:103af800020220008500780004007800cff3070058
:103b08003e029000846290008582fb00146290005f
:103b18000482fb004822dd000482720005022000b6
:103b2800050f42001e027800e5c2b3001542980056
:103b3800ee0290001e027800550a98006e0390006d
:103b4800fe03900004002000f5ff20000600780026
:103b580007037800840378000502780007006000f6
:103b68000402630005002000c022dd0004002000dc
:103b78000403be006102b800040373008583730068
:103b8800403ade0005002000840278001e0278001a
:103b9800250a98004e019000de0190003e0090003a
:103ba800a20607000002be00140798002507980027
:103bb8003e029000c46290008582fb00546290002f
:103bc8000482fb004822dd0004827200840278002f
:103bd800450290000400a000c40298003e02900034
:103be800c46290008582fb00546290000482fb004e
:103bf8004822dd00048272001e039000ae0390008c
:103c0800068abe008000eb003e0090007b0507009e
:103c1800004278000404a200e04f52000200320083
:103c28000002eb00010037001400200004007800b7
:103c38000080fa00000006001400fa00200798002f
:103c480031079800420798005307980064079800c6
:103c580075079800060f9800170f98000002eb00f0
:103c6800140798005e0290001402be00e00f520094
:103c7800e08f5a0016003a002e02900024039000ac
:103c8800c64b90008783fb00564890000080fb00dd
:103c98004800dd008083730007027800e64b90003f
:103ca8008783fb00764b90000683fb004833dd00da
:103cb80006837300860278005e039000048bbe00c2
:103cc800030037000000000001003700000000007a
:103cd8008e82e8007e029000ee0190005e01900066
:103ce800850078002e009000f70307000002780096
:103cf800040f78001e029000ef0f52001d003200e2
:103d08001e029000fd0f520006003a002e0290009d
:103d180024029000d5c1b300057298001e029000dd
:103d28008c0037007e0290000402e80074079800b7
:103d38001e027800344a9000ef4f5200080032000b
:103d48001e027800344a9000e84f52000400320006
:103d58001e02780014427800fb4f420006003a0029
:103d68001e02780014427800e04f5200d8ff3a0053
:103d780001003700000000001e029000ef0f520003
:103d8800040032001e02780014427800e04f52000e
:103d980002003a00f40020006e0037001e0a90006e
:103da80068026200e00f52000a0032001e0278002a
:103db800344a90008482fb000e0a900084826200dc
:103dc8001e027800344a90000482fb00848f52005f
:103dd800bcff3a001e0a9000844278001e02780058
:103de80005417800840078004e009000b505070072
:103df80000427800e04f5200b4ff32009e02780083
:103e08003e0290007402b000b200200085007800e5
:103e18000400780009f307002e029000a402900025
:103e28003e029000450a98001e007800b2fc070088
:103e38000002be003e03900044039800550398001a
:103e48003e029000d4029000440290003e0390008d
:103e580064039800750398003e0290008002eb000e
:103e6800550a98003e0290008002eb00650a98000f
:103e78003e0390006022b800240b9800350b980090
:103e88001e027800f40a9000640a90003e03900035
:103e9800040b9800150b98001e027800344a900015
:103ea8008482fb003e029000051298003e029000ba
:103eb8000412900070026200e00f52000d00320000
:103ec8001e027800d44a90003e0290006562980075
:103ed8001e027800f40290003e029000151298002d
:103ee8001e027800840a90003e0290002512980075
:103ef800080037001e027800b40a90003e029000c5
:103f0800151298001e027800c40a90003e02900024
:103f1800251298007e0290000402e90074079800b8
:103f28003e029000fe029000750a98002e02900052
:103f38001402be003e039000048bbe002e029000c7
:103f48001402be003e039000240398003503980035
:103f58000002eb00040078000080fa000000060070
:103f68000c00fa003007980041079800224f98008b
:103f7800334f98000002eb00040f78004e029000c7
:103f88008002eb00050a7800ce0090003e00900009
:103f98006701070000027800e00f52001d003a0098
:103fa8003e4a9000e04f52000b0032003e00900065
:103fb800230007000002be00140798002507980098
:103fc8003e029000440a9000047290000482fb00b4
:103fd800040f7800030037006022b8001407980027
:103fe800250798001e027800e00f52000b003a00e7
:103ff8001e029000ae0290002e499000ce00900064
:104008003e0090008200070000027800040f78004c
:104018000200370064012000040f78003e0290007f
:10402800440a90009e027800854278000572980044
:104038001e027800040078000080fa0000000600e4
:104048000a00fa00400798000002eb00040f78000d
:104058004e029000440a9000140798004e02900007
:10406800440a900022002000030020000400780089
:10407800010207000002be002407980035079800d7
:104088002e029000be029000e00f5200e08f5a000e
:1040980003003a0074012000040f78004000370044
:1040a8001e029000646a9000e14f520010003a002e
:1040b8008040eb0084ff2000050020002e019000c6
:1040c800be0190001e009000aa0907000003be0070
:1040d800f4ff2f0005002000840f5300858f5b003c
:1040e80026003a0094002000040f780023003700cf
:1040f8001e029000646a9000e24f520010003a00dd
:104108008040eb0084ff2f00050020002e01900066
:10411800be0190001e009000960907000003be0033
:10412800f4ff2f0005002000840f5300858f5b00eb
:1041380012003a0094002000040f78000f003700a6
:104148008040eb0084ff2f00f5ff20002e01900037
:10415800be0190001e009000860907000003be0003
:10416800f4ff2f00f5ff2000840f5300858f5b00bc
:1041780002003a0094002000040f78001e02780024
:10418800e00f520006003a002e019000be01900098
:104198001e0090003a02070000027800040f780021
:1041a800110020001e00900014040700004278004f
:1041b8000404a200e04f52000200320094002000e4
:1041c800040f78004e0290002e039000be0390006a
:1041d80046029800570298004e0290002e03900065
:1041e800be03900066029800770298001e027800cd
:1041f800844278001e029000057298002e029000fa
:10420800be0290000400be000080fa000000060014
:104218002000fa00300f9800410f9800225f9800a4
:10422800640f9800750f98000002eb0014079800bf
:104238000002eb00740798003e0a90001402be00ca
:1042480024079800350798003e0a9000440a900019
:10425800440798003e0a90001402be0054079800d4
:10426800650798004e0a9000140278006e00470017
:10427800ea0347000e83e800e40247008001780063
:104288000701780086007800050078008e02070094
:1042980000027800040f78001e027800e00f520038
:1042a80006003a003e0a9000440a9000d5c1b300c7
:1042b80005729800d40120009a0037003e0a900049
:1042c80075022000848242001e027800b20020009d
:1042d8008500780004007800edf107001e027800e0
:1042e800ae5a9000354a98001e0278008042eb00d2
:1042f800454a9800ee0a90001e027800550a980078
:104308006e0b9000fe0b900004002000f5ff2000cb
:104318000600780007037800840378000502780017
:10432800070060000402630005002000c022dd00d1
:10433800040020000403be006102b80004037300f7
:1043480085837300403ade0005002000840278006f
:104358001e027800250a98001e0378006022b80023
:10436800640b9800750b9800f4698000e00f520008
:1043780005003200f56980007002470004007800eb
:1043880005000100050037007002470062002000a8
:104398008000eb0004007800aff10700ce529000d7
:1043a8001e027800554a98009e0a90001e02780066
:1043b800750298008e0a90001e027800050a98007f
:1043c8009e0a90001e027800350a98008e0a900016
:1043d8001e027800450a98003e0a90006e0b900075
:1043e800fe0b900046029800570298003e0a900083
:1043f8006e0b9000fe0b9000660298007702980002
:104408003e0a90008002eb00550a98003e0a900090
:104418008002eb00650a98003e0b90006022b8000d
:10442800240b9800350b98001e027800f40a9000bf
:10443800640a90003e0b9000040b9800150b98003e
:104448001e027800344a90008482fb003e0a9000e5
:10445800051298003e0a9000041290007002620053
:10446800e00f52000d0032001e027800d44a90007e
:104478003e0a9000656298001e027800f4029000df
:104488003e0a9000151298001e027800840a9000d7
:104498003e0a900025129800080037001e02780096
:1044a800b40a90003e0a9000151298001e02780087
:1044b800c40a90003e0a9000251298004e0a900007
:1044c800940278003e0a9000750a98002e02900027
:1044d800be0290003e0b9000048bbe002e0290009e
:1044e800be0290003e0b900024039800350398000c
:1044f8003e0a9000440a9000c46290008582fb0046
:10450800546290000482fb004822dd00048272009d
:1045180084027800450290000400a000c4029800bc
:104528001e029000040078000080fa0000000600d7
:104538002200fa00700f9800011798000002eb00a3
:10454800040f98007e0a90001402be00440f9800e1
:10455800550f98000002eb00640f98000002eb0072
:10456800340798007e0a9000440a9000340f98009f
:104578007e0a90001402be00140f9800250f9800c0
:1045880014c0b300044f98000e12900094027800f3
:1045980025079800620037000042eb00044f7800be
:1045a8002e029000140798004e0a9000de0a900030
:1045b80054079800650798007c004700f8034700f7
:1045c80070034700f20247002e0290008001780035
:1045d800070178008600780005007800ba01070016
:1045e80000027800740798002e0290000402e80088
:1045f800240798007e029000e00f52000d00320060
:104608007e02900014427800fb4f42000400320002
:104618007e02900014427800e04f520005003a00f4
:104628001e4fe8000e4a90009e42780084cf520048
:10463800ddff39007e029000e00f520032003a00a0
:104648007e0a9000440a900004037800c64b90004c
:104658008783fb00564890000080fb004800dd007f
:104668008083730007027800e64b90008783fb0085
:10467800764b90000683fb004833dd000683730009
:10468800860278004e0b9000de0b9000860f5200d9
:10469800878f5a0008003a007e0a9000440a90006a
:1046a800646a9000e34f52000300320024002000a7
:1046b800340798001a0037005e029000ee0290005e
:1046c800440f9800550f98007e0a9000440a900005
:1046d800f802470012c0b300850078000400780093
:1046e8001e00070000027800f70f520003003a008e
:1046f8002400200034079800090037001400200027
:1047080034079800060037000e4a90009e42780051
:1047180084cf520002003a001400200034079800a9
:104728003e029000e00f52009bff32000e129000f4
:104738009e029000050a78003e029000e10f5200a8
:1047480002003a000002eb0001003700f4002000ec
:10475800040078000080fa00000006000a00fa0051
:104768002007980031079800024f98003e029000f9
:104778001402be000401be002e0090003e00070097
:104788000002be00048fbe001e02be00e00f5200f1
:10479800e08f5a0002003a0074012000330037000d
:1047a8002e029000646a9000e14f520007003a0020
:1047b8008040eb0084ff2000050020001e01be00a1
:1047c8002e009000eb070700150037002e0290001e
:1047d800646a9000e24f520007003a008040eb0004
:1047e80084ff2f00050020001e01be002e0090004f
:1047f800e00707000a0037002e029000646a900064
:10480800e34f520006003a008040eb0084ff2f007f
:10481800f5ff20001e01be002e009000d5070700fe
:104828003e0290001403be008040eb001e02be0052
:104838000601be002e009000ce0707003e02900041
:104848003e1a78002e1278000e4a9000e04f52006f
:10485800050032001e01be002e00900088000700ef
:1048680000027800010037000002eb000400780025
:104878000080fa00000006001600fa00000f9800f9
:10488800120f9800230f98006022b8006407980060
:10489800750798000e0a9000646a90000482fb0075
:1048a800e10f52000b003200e30f520012003a00f1
:1048b80074ff2f00f5ff20002407980035079800a3
:1048c800f4ff2f00f5ff20004407980055079800d3
:1048d8001200370074ff200005002000240798000c
:1048e80035079800f4ff2f000500200044079800c2
:1048f800550798000900370074ff2f0005002000b5
:104908002407980035079800f4ff2f0005002000c1
:104918004407980055079800000000001e0b9000ff
:10492800ae0b90001400200005002000840f5300f7
:10493800858f5b0004003e00240020000500200055
:10494800140f9800250f98001e0a9000ae0a9000d8
:10495800048fbe00400037001e01be000e08900004
:10496800a70307000002be006407980075079800b7
:104978006e039000fe0390004e029000de0290004d
:10498800840f5300858f5b0003003a006022b80053
:10499800048fbe00360037006e029000fe029000c1
:1049a800e00f5200e08f5a0030003200140020005f
:1049b800050020001e0f42005e974a006e0390001b
:1049c800fe0390002e029000be029000840f530058
:1049d800858f5b00140032000e0b9000c6539000c8
:1049e8008783fb00565090000080fb004800dd00e4
:1049f8008083730007027800e65390008783fb00ea
:104a0800765390000683fb004833dd00068373006d
:104a18008602780062024200e0824a00be0f52001d
:104a2800ae8f5a0003003e0024002000050020003d
:104a3800048fbe001e0a9000ae0a90001e03be003e
:104a4800840f5300858f5b0003003a006022b80092
:104a5800048fbe00060037001e02be00e00f5200a1
:104a6800e08f5a00bcff3a00010037000000000048
:104a78001e02be000400be000080fa00000006000e
:104a88000e00fa00881f7800400798005207980027
:104a9800630798000002eb00040f78005e019000a5
:104aa800ee0190004e009000e00207000002be00f8
:104ab80014079800250798008000eb004e0090002e
:104ac800ce010700004278000404a200e04f520023
:104ad800050032004e02900095c0b30005729800a0
:104ae80094002000740037004e039000865b90000d
:104af8008783fb00165890000080fb004800dd000b
:104b08008083730007027800a65b90008783fb0010
:104b1800365b90000683fb004833dd000683730094
:104b280086027800840278004e02900004639000a8
:104b38000683fb00146290000482fb004822dd001b
:104b480004027300050178008000eb00040078007f
:104b5800c1ef07000042eb00644798002d003700c2
:104b68004e029000e46290008582fb00746290001f
:104b78000482fb004822dd00048272005404900085
:104b88004e029000846290008582fb0014629000bf
:104b98000482fb004822dd000482720004007800d1
:104ba8001e039000ae0390001e029000ae0290001b
:104bb80061024200e0824a00140798002507980025
:104bc8004e029000846a90008582fb00146a90006f
:104bd8000482fb004822dd0004827200840278000f
:104be8000042eb00800078000601be000500780056
:104bf8000800010000427800e04f520002003a002d
:104c080094002000040f78006e4290000442e800ef
:104c1800644798004e029000d46a90006e4290005b
:104c280084cf5200030036001e027800e00f5200c5
:104c3800cbff32004e029000c46290008582fb00d8
:104c4800546290000482fb004822dd000482720056
:104c5800040078004e029000546a90000482fb0021
:104c6800050020001e039000ae03900004025300cc
:104c780085825b000488be004e029000c4629000ea
:104c88008582fb00546290000482fb004822dd000c
:104c98000482720084027800450290000400a1009a
:104ca800c40298001e027800844278004e029000e8
:104cb800057298001e027800040078004f047800fe
:104cc8000080fa00000006001800fa00700798003b
:104cd800010f9800120f9800230f9800340f9800c6
:104ce8007e02900024009000300798003e03900058
:104cf800865b90008783fb00165890000080fb00bd
:104d08004800dd008083730007027800a65b9000ee
:104d18008783fb00365b90000683fb004833dd0089
:104d28000683730086027800cb28dd004522de006a
:104d380004827000c52ade00044f98000e4a9000d5
:104d48000482fb00be0a9000110009008482d8008a
:104d580000027800040f78003e029000646a900018
:104d6800e34f5200280032001e0a90001402be00d1
:104d7800e00f5200e08f5a0023003a003e029000f4
:104d8800a46a90008582fb00346a90000482fb00cc
:104d98004822dd0004827200840278003e0a9000f6
:104da800848f520005003e000e0a9000f500200096
:104db800050a78000002eb00d30037007e0290005d
:104dc8001402be007e039000260390000401be007a
:104dd80006007800150207000002be0014079800bc
:104de800250798001e027800050020001e03900089
:104df800ae0390000602420087824a00140798001a
:104e080025079800630037003e029000546a90001e
:104e18000482fb009e027800110009008482d800f9
:104e280000027800540798002e0a90009402780037
:104e38005e029000848f5200070036002e0a900010
:104e48008002eb00050a78007e0290001402be0082
:104e58001e0b9000048bbe003e029000546a900026
:104e68008482fb002e0a90001402780004aab9007c
:104e7800040278001e0f1200310037001e0a90004d
:104e88001402be000401be003e0090005c02070050
:104e98000002be001e0b9000048bbe003e02900074
:104ea800646a90000482fb00e30f52000c003a0091
:104eb8001e0a90001403be0084ff2f00f5ff200097
:104ec800840f5300858f5b0011003a000e0a900092
:104ed800f5002000050a78000002eb008a00370080
:104ee8001e0a90001403be0084ff2f000500200056
:104ef800840f5300858f5b0007003a000e0a90006c
:104f0800f5002000050a78000002eb007e0037005b
:104f18000000000001003700000000002e0a900089
:104f2800140278008402e8002e0a9000050a78002e
:104f38003e029000546a90000482fb001e0f12008b
:104f48002e0a9000940278005e029000848f52002e
:104f5800caff39001e0a90001402be000401be00f8
:104f68003e009000b10107000002be00140798003f
:104f7800250798001e027800050020001e039000f7
:104f8800ae0390000602420087824a001407980088
:104f9800250798003e029000c46290008582fb00bd
:104fa800546290000482fb004822dd0004827200f3
:104fb8001403be001e029000ae029000840f53003e
:104fc800858f5b003b0032008000eb003e009000c4
:104fd8008a000700004278000404a200e04f520053
:104fe800050032000e0a900095002000050a78009e
:104ff8000002eb00440037003e029000e46290009b
:105008008582fb00746290000482fb004822dd0068
:1050180004827200440390003e0290008462900073
:105028008582fb00146290000482fb004822dd00a8
:1050380004827200840278003e029000846b900023
:105048008783fb00146a90000482fb004822dd007d
:1050580004827300850078001e019000ae01900064
:105068000400780006000100004278000404a20051
:10507800e04f5200050032000e0a90008500200023
:10508800050a78000002eb001f0037003e0290007e
:10509800c46290008582fb00546290000482fb0089
:1050a8004822dd00048272001e039000ae039000c7
:1050b800068abe003e029000846290008582fb0052
:1050c800146290000482fb004822dd000482720012
:1050d800840278000e4a90000482fb003e0b900088
:1050e800110009000483d800010278004522dd0080
:1050f80004824200640798000e0a90008002eb00c8
:10510800050a78006e029000040078000080fa001a
:10511800000006000200fa00881f7800000f7800df
:105128008000eb001e007800340007000042780081
:105138000404a200e04f5200020032009400200054
:105148002a0037001e027800e46290008582fb0086
:10515800746290000482fb004822dd000482720021
:10516800440490001e027800846290008582fb004f
:10517800146290000482fb004822dd000482720061
:10518800840378001e027800c46290008582fb00c8
:10519800546290000482fb004822dd000482720001
:1051a8001402be001e037800066890000080fb0011
:1051b800166b90000683fb004833dd000603700081
:1051c800870078000401be0006007800080001008e
:1051d800004278000404a200e04f520002003200ae
:1051e80084002000010037000002eb000400780072
:1051f8004f0478000080fa00000006000a00fa0058
:10520800881f780030079800410798004e029000e8
:10521800e00f520003003200e10f5200420032005a
:10522800a30037003e029000c46290008582fb0014
:10523800546290000482fb004822dd000482720060
:105248004402900061026200e00f520095003200b3
:105258003e029000e46290008582fb007462900038
:105268000482fb004822dd0004827200540490008e
:105278003e029000846290008582fb0014629000d8
:105288000482fb004822dd000482720004007800da
:105298003e029000c46290008582fb005462900038
:1052a8000482fb004822dd00048272001403be0061
:1052b8003e029000846a90008582fb00146a900088
:1052c8000482fb004822dd00048272008402780018
:1052d8000042eb00800078000601be00050078005f
:1052e8000800010000427800e04f520002003a0036
:1052f8000042eb006f0037003e029000c46290004d
:105308008582fb00546290000482fb004822dd0085
:105318000482720084027800450290000400a10013
:10532800c4029800620037003e029000c4629000f8
:105338008582fb00546290000482fb004822dd0055
:10534800048272004402900062026200e00f520080
:10535800560032003e029000c46290008582fb0035
:10536800546290000482fb004822dd00048272002f
:1053780024039000b4039000068fbe000042eb00a7
:1053880044479800360037003e029000e4629000df
:105398008582fb00746290000482fb004822dd00d5
:1053a80004827200d40390003e029000a462900030
:1053b8008582fb00346290000482fb004822dd00f5
:1053c80004827200040378003e029000846a900010
:1053d8008582fb00146a90000482fb004822dd00ed
:1053e80004827200840278000042eb008600780094
:1053f8001e01be0005007800070001000042780089
:10540800e04f520002003a000042eb00290037004a
:105418004e4290000442e800444798003e03900042
:10542800c65b90008783fb00565890000080fb0005
:105438004800dd008083730007027800e65b900077
:105448008783fb00765b90000683fb004833dd0012
:1054580006837300860278001e0f42005e974a009a
:105468003e029000c46a90004e42900084cf5200e1
:10547800c5ff3e003e029000c46290008582fb009a
:10548800546290000482fb004822dd00048272000e
:1054980084027800450290000410a100c40298001c
:1054a8000300370000000000010037000000000082
:1054b80014c0b300044078004f0478000080fa005c
:1054c800000006000800fa0010079800210798005d
:1054d800624798006e4290000482fb0064026200fa
:1054e800e00f5200440032000042eb00044f780005
:1054f800190037009e4278000582fb009e0290004a
:105508000482420094427800154798009e42900019
:10551800a4c2b30084cf5200130032009e42900010
:10552800f4c3b30084cf52000a0032009e427800d0
:105538000582fb00ae02900004824200944278008b
:105548001e42900084cf5200020032000042eb005d
:10555800330037001e4fe8001e427800e74f520024
:10556800e4ff3600010037000000000084c0b300eb
:10557800044f7800190037009e4278000582fb002e
:105588009e029000048242009442780015479800d9
:105598009e429000a4c2b30084cf52001300320090
:1055a8009e429000f4c3b30084cf52000a00320038
:1055b8009e4278000582fb00ae0290000482420001
:1055c800944278001e42900084cf520002003200bc
:1055d8000042eb00120037001e4fe8001e42780020
:1055e800ea4f5200e4ff36000100370000000000d7
:1055f80014c0b3000a003700b2002000ae009000cb
:105608001e009000f3ec07000002780004f0a700e9
:105618000402ea000402e9004f22de000442780096
:10562800044078000080fa00000006000a00fa0032
:105638002007980032079800430798002e02900030
:10564800646a90000482fb00e30f520024003a00d1
:105658003e029000ce02900062035200e0835a009e
:105668002e029000546a90000482fb00050020007e
:1056780004b8b9000000780006a9b90082007800d3
:105688000100400006037800040278000432b800e4
:1056980005004000800278002e00900080509000a5
:1056a8008180fb00105190000281fb004811dd0051
:1056b8008280700001037800a05090008180fb0078
:1056c800305090000080fb004800dd000080700032
:1056d80080037800061f420007974a0044003700fd
:1056e8003e029000ce029000e00f5200e08f5a0078
:1056f800070032003e039000ce0390001400200003
:1057080005002000840f5300858f5b0014003a00c9
:105718002e039000864b90008783fb00164890006c
:105728000080fb004800dd008083730007027800da
:10573800a64b90008783fb00364b90000683fb0046
:105748004833dd0006837300860278003e0390002c
:10575800ce039000061f420007974a002400370036
:105768003e029000ce02900062035200e0835a008d
:105778002e029000546a90000482fb00050020006d
:1057880004b8b9000000780006a9b90082007800c2
:105798000100400006037800040278000432b800d3
:1057a80005004000800278002e0090008050900094
:1057b8008180fb00105190000281fb004811dd0040
:1057c8008280700001037800a05090008180fb0067
:1057d800305090000080fb004800dd000080700021
:1057e80080037800061f420007974a000000000067
:1057f8001e02be000400be000080fa000000060081
:105808002000fa00889fbe00500f9800620f980091
:10581800730f98006022b800340798004507980075
:105828005e0a9000646a90000482fb00e10f520057
:1058380015003200e30f520035003a006e0b90005d
:10584800fe0b9000423add00ce32de008502720087
:105858004232dd0014079800250798000042eb004b
:10586800044f7800f4ff2f00f5ff2000540798003c
:105878006507980084ff2f00f5ff20007407980043
:10588800050f9800330037007e0a90006322b900a4
:10589800040378006e0a90006022b90004027800c0
:1058a80004034300ee0a900034002000042ab800e4
:1058b800050343008602780014079800250798001e
:1058c80014079800250798001e02900004427800eb
:1058d800614f62001e029000ae0290008502d10066
:1058e8000482d3001407980025079800f4ff2f00be
:1058f80005002000540798006507980084ff2000e1
:105908000500200074079800050f98001100370063
:105918006e0a9000fe0a90000402420085824a0046
:1059280014079800250798000042eb00044f780000
:10593800f4ff2f0005002000540798006507980021
:1059480084ff2f000500200074079800050f9800b9
:10595800000000005e0a9000c44290008582fb00af
:10596800544390000683fb004833dd0086827200b2
:1059780005047800e44290008582fb0074429000a0
:105988000482fb004822dd0004827200840478004f
:105998005e0b9000865b90008783fb001658900092
:1059a8000080fb004800dd00808373000702780058
:1059b800a65b90008783fb00365b90000683fb00a4
:1059c8004833dd0006837300860278000401be00b8
:1059d8001e009000ae009000eeeb07000002be0033
:1059e8000802420089824a00140f9800250f980087
:1059f8005e0b9000865b90008783fb001658900032
:105a08000080fb004800dd008083730007027800f7
:105a1800a65b90008783fb00365b90000683fb0043
:105a28004833dd0006837300860278006102520065
:105a3800e0825a001e039000ae0390000600780032
:105a480007037800840378000502780007006000e7
:105a58000402630005002000c022dd0004002000cd
:105a68000403be006102b800040373008583730059
:105a780016079800270798005e0a9000c4629000f5
:105a88008582fb00546290000482fb004822dd00fe
:105a98000482720024039000b40390001e0a900050
:105aa800ae0a9000840f5300858f5b00f3003a0024
:105ab8005e0a9000646a9000e34f52000f003a00bb
:105ac8009e0290005e0a9000246390000683fb000b
:105ad800346290000482fb004822dd000402730057
:105ae8008500780004007800211107000002be003c
:105af8003407980045079800c70137005e0a9000f0
:105b0800646a9000e24f520010003a009e02900032
:105b18005e0a9000246390000683fb0034629000c4
:105b28000482fb004822dd0004027300850078002f
:105b380004007800f4100700000278000500200037
:105b48003407980045079800b30137005e0a9000b3
:105b5800646a9000e14f5200af013a005e0a90007b
:105b6800a46290008582fb00346290000482fb00ee
:105b78004822dd0004827200840278001e02900030
:105b880004824200144278000482fb0005002000d1
:105b980034079800450798001e427800e04f5200ed
:105ba800080032003e029000ce0290004c2bdd002f
:105bb8004422de0004027300c42ade003407980081
:105bc800450798001e029000ae0290006100420056
:105bd800e0804a005e0b9000865b90008783fb00a4
:105be800165990000281fb004811dd008283730082
:105bf80007027800a65b90008783fb00365b900065
:105c08000683fb004833dd000683730086027800b4
:105c180061025200e0825a00000178000103780016
:105c2800840378000502780007006100040263001d
:105c380005002000c022dd00040020000403be008f
:105c48006102b80004037300858373001607980087
:105c5800270798001e029000ae029000e00f520045
:105c6800e08f5a004a003a00110020005e089000b8
:105c780062fd0700004278000404a200e04f5200d1
:105c8800030032005e029000ee0290006f013700c0
:105c98005e0a9000e46290008582fb0074629000c6
:105ca8000482fb004822dd00048272004404900054
:105cb8005e0a9000a46290008582fb003462900026
:105cc8000482fb004822dd0004827200840378000d
:105cd8001e0a9000ae0a900061024200e0824a006b
:105ce8005e0b9000066890000080fb00166b900029
:105cf8000683fb004833dd00060370008700780048
:105d08000401be0006007800080001000042780087
:105d18000404a200e04f52000f0032005e0a900017
:105d2800c46290008582fb00546290000482fb00ec
:105d38004822dd0004827200040378000082eb0030
:105d48008082eb0024039800350398005e029000df
:105d5800ee0290003d0137005e0a9000c462900098
:105d68008582fb00546290000482fb004822dd001b
:105d780004827200040378001e0a9000ae0a9000a4
:105d880061024200e0824a0024039800350398002b
:105d98005e0a9000a46290008582fb003462900045
:105da8000482fb004822dd0004827200840278002d
:105db8001e02900004824200144278000482fb0014
:105dc80005002000340f9800450f98001e42780007
:105dd800e04f52000d0032003e0b9000ce0b9000b9
:105de800443add00cc32de00850272004432dd0028
:105df8003e039000ce0390000602420087824a00cc
:105e08003407980045079800030137003e0b9000bf
:105e1800ce0b9000f400200005002000060078005a
:105e28000703780084037800050278000700600003
:105e38000402630005002000c022dd0004002000e9
:105e48000403be006102b800040373008583730075
:105e5800483add00c832de00850272004832dd00b3
:105e68003e039000ce0390000602420087824a005b
:105e78003407980045079800e70037001100200014
:105e88005e089000ddfc0700004278000404a200d0
:105e9800e04f5200030032005e029000ee029000d4
:105ea800ea0037005e0a9000e46290008582fb00f9
:105eb800746290000482fb004822dd0004827200b4
:105ec800440390005e0a9000a46290008582fb0063
:105ed800346290000482fb004822dd0004827200d4
:105ee800840278005e0a9000846b90008783fb0030
:105ef800146a90000482fb004822dd0004827300cb
:105f0800850078001e099000ae0990000400780012
:105f180006000100004278000404a200e04f52008d
:105f28000f0032005e0a9000c46290008582fb0078
:105f3800546290000482fb004822dd000482720053
:105f4800040378000082eb008082eb0024039800b1
:105f5800350398005e029000ee029000bb00370007
:105f68005e0a9000c46290008582fb005462900033
:105f78000482fb004822dd00048272001e0b9000a0
:105f8800ae0b900026029800370298005e0a900037
:105f9800646a9000e34f52000f003a009e0290009e
:105fa8005e0a9000246390000683fb003462900030
:105fb8000482fb004822dd0004027300850078009b
:105fc80004007800ea0f07000002be0034079800ba
:105fd80045079800900037005e0a9000646a9000b8
:105fe800e24f520010003a009e0290005e0a9000b4
:105ff800246390000683fb00346290000482fb0057
:106008004822dd000402730085007800040078004f
:10601800bd0f070000027800050020003407980033
:10602800450798007c0037005e0a9000646a90007b
:10603800e14f520078003a005e0a9000a462900096
:106048008582fb00346290000482fb004822dd0058
:1060580004827200840278001e02900004824200ca
:10606800144278000482fb000500200034079800e1
:10607800450798001e427800e04f520008003200a1
:106088003e029000ce029000cc2bdd004422de00c0
:1060980004827300c42ade0034079800450798007c
:1060a8001e029000ae02900061004200e0804a00ab
:1060b8005e0b9000865b90008783fb00165990006a
:1060c8000281fb004811dd0082837300070278001b
:1060d800a65b90008783fb00365b90000683fb007d
:1060e8004833dd000683730086027800610252009f
