:020000040000fa
:080000000004040000000000f0
:020000040000fa
:1000080004800000088000000c80000010800000c0
:1000180014800000bc800000bc800000bc80000090
:10002800188000001c800000208000002480000050
:10003800bc800000288000002c8000003080000078
:1000480034800000388000003c80000040800000c0
:100058004480000048800000bc800000bc80000094
:100068004c80000050800000548000005880000040
:100078005c800000bc800000bc800000bc800000e8
:10008800bc80000060800000648000006880000080
:100098006c80000070800000748000007880000090
:1000a8007c80000080800000bc800000bc800000d4
:1000b800bc80000084800000888000008c800000e4
:1000c800bc80000090800000bc800000bc80000064
:1000d800bc80000094800000bc800000bc80000050
:1000e800bc800000988000009c800000bc8000005c
:1000f800bc800000bc800000bc800000bc80000008
:10010800bc800000bc800000bc800000bc800000f7
:10011800bc800000bc800000a0800000bc80000003
:10012800bc800000a4800000a8800000ac80000013
:10013800bc800000bc800000bc800000bc800000c7
:10014800b0800000bc800000bc800000bc800000c3
:10015800bc800000b4800000bc800000bc800000af
:10016800bc800000bc800000bc800000bc80000097
:10017800bc800000bc800000b8800000bc8000008b
:10018800bc800000bc800000bc800000bc80000077
:10019800bc800000bc800000bc800000bc80000067
:1001a800bc800000bc800000bc800000bc80000057
:1001b800bc800000bc800000bc800000bc80000047
:020000040000fa
:020000040000fa
:100800006fea20000e7f22000e0188000000000029
:10081000000020000000e000020032000001200083
:10082000200288000c000700c060270001002000a3
:1008300011000700000020000000e000020032006c
:1008400000000200000000006a75020000000000c5
:100850000040da000000fe004440a900601e2000b5
:100860000000e0000300320000002000a00188002a
:100870004440a80000000600910188008000780034
:100880000000eb0015003700e280400032a0b40009
:100890009101ba00e280400032a0b4009102ba0097
:1008a000e280400032a0b4000002eb00472bde00e3
:1008b000f507b200602ce10004003a000059eb009b
:1008c0008301e900fdff3e00040037006128e100dc
:1008d000010032000082eb00040007001101ba00a1
:1008e0000200e000e8ff3a00000006003159ba00bb
:1008f0008301e9000c0032002159ba008301e900ac
:10090000080032000400e00003003a00e2804000ea
:1009100032a0b400f5ff370011d9ba008301e90015
:10092000faff3a008100e800e180400032a0b40004
:1009300000000600000000000000000000000000b1
:1009400000000000000000000000000000000000a7
:100950000000000000000000000000000000000097
:100960000000000000000000000000000000000087
:100970000000000000000000000000000000000077
:100980000000000000000000000000000000000067
:10099000000000000040da000000fe000a00fa003b
:1009a000e20f500022003e0024758000e10f52004b
:1009b0000600320087232000462320002423200045
:1009c00005232000e08f530004003a008722200016
:1009d00046222000242220000522200000002800ba
:1009e0001500600003003a00800b78000700280023
:1009f000958a7300054020009482620001003a004d
:100a000014a0a0008202780006003700940378004a
:100a10000710b200fdff3200b103fb00070b7800a6
:100a20008502e900e08f5200f8ff3a000800370025
:100a300034002000c0bf9f00e2bf9f00b4bf9f00f2
:100a4000d1bf9f006a805700ca0407006fb99700a2
:100a5000020078000080fa00000006000000fa00a2
:100a600021e2a9009560a9009580a9008560a900f0
:100a70008580a9000080fa00000006000200fa004c
:100a8000000f78008560a9008580a9001e0278000b
:100a90000442780067426200674262006742620077
:100aa0000482fb00670262004c22dd0046058000e4
:100ab000f5ff2800850263000502720044058800e6
:100ac000040720001e0262004422de000442780077
:100ad000674262000482fb006702620056058000e4
:100ae00085ff2f008502630005027200540588000f
:100af0009e027800688262004322de000442780091
:100b0000614262000482fb00610262004b22dd0050
:100b1000a6048000f57f2f008502630005027200a5
:100b2000a4048800040820001e0262004722de00a0
:100b300004427800614262000482fb0061026200ac
:100b40004c22dd00a6048000f5ff2e008502630024
:100b500005027200a40488000080fa00000006006c
:100b60000800fa0010079800210798003207980043
:100b70003e029000441188001e029000041188007b
:100b80002e029000141188000200370034118000fa
:100b9000044f78001411800061026200e00f5200df
:100ba000faff3a008560a9000080fa000000060004
:100bb0006022b800060220000000d0008180d20030
:100bc0000482d2008582d2000000a00002025200fe
:100bd00083825a00030031000202420083824a00ed
:100be0000000a1000603e900f3ff3a000000060040
:100bf000e68747008e1f780066875700d0bf9f00aa
:100c0000012f78000e0037005fbb9700efba970006
:100c100016407800154278000201e900844f500028
:100c2000040032000080fb000482fb00040050003e
:100c3000060037000603e800d6bf9f00050fe80056
:100c4000e00f5100f0ff3a00020078004f077800f3
:100c50006f00b100000006000002780002003700bb
:100c6000315a78000201e900e00f5100fcff3a0020
:100c7000000006000002780002003700015a7800e8
:100c80000201e900e00f5100fcff3a0000000600fd
:100c9000889fbe000004be00050037000000fb0076
:100ca0008900780031000700e10f400004003200a5
:100cb00038407800e04f5000f8ff3a000000eb00a9
:100cc0004f04be000000060041e82000881f7800a5
:100cd000efff070041e8200000047800a00020009a
:100ce00022000700080078004f047800000006008a
:100cf000000278008042eb00b4cf1200fdff3a0002
:100d00000080ea00000042000000060000027800b7
:100d100006003700314378000201e900065a7800e6
:100d200084027800e04f530006003200840278000d
:100d3000e00f5100f7ff3a0002003700805aeb0045
:100d40000201e900e00f5100fcff3a00000006003c
:100d500040e820000000fa0068815700cfb89700f3
:100d6000460007000080fa0000000600889fbe00d1
:100d7000010478008084eb0038029000e2026200f7
:100d80003b00320004037800980290000620b20075
:100d900002003a00e08f520035003a000490a000b3
:100da0008004780034049800f90fb200e08f5200fc
:100db00002003a00a8029000050c7800ea8f540067
:100dc00005003a000408b20003003a0088007800e9
:100dd000d0002000e5ff070018029000d802900024
:100de000850f52000b0032000402e80015c0b3006a
:100df0001404980018027800094a7800040ce800ee
:100e0000e4e92000054a7800ea8f540018003a000f
:100e10000500370009407800880078009303070038
:100e20008004780012003700380290000410b200ed
:100e30000f00320018019000a800900048009000b8
:100e4000d6fe070018029000840f50000400320004
:100e5000380290000403b300340498008084eb004f
:100e60000002eb001404980028029000040c7800a3
:100e7000090078004f04be0000000600ef03b00038
:100e8000889fbe008a9fbe008c9fbe0080067800af
:100e90008e1f78000007eb00d1af9f00a2b79f0024
:100ea00066033700dfa8970054c2b3008100e80052
:100eb000d1af9f00844f500006003a000102780035
:100ec0000006eb0001c3b30000c2b300b7c2b30019
:100ed0000e0037003d0290000404b200040032000e
:100ee0001d027800004a7800840ee80005003700f3
:100ef0000000fb008d0078009cff0700e10f400020
:100f00004e0332000e07e8004c03370084027800dd
:100f1000d2c2b30034437800824f5300090032003c
:100f200005003c00804f530008003200874f5300fb
:100f30000c003a0007003700814f530009003a00c7
:100f4000060037000c30a000f0ff37000c00a000b6
:100f5000eeff37000c10a000ecff37000c20a000c3
:100f6000eaff370062026600010032000c00a100b7
:100f700068026600010032000c20a1000602fb009e
:100f80000403b100e90f52000c003e000503780095
:100f90000002eb00b603fb006a22b9000703b100b0
:100fa00086027800048243009603fb000703b10029
:100fb000e98f5300f7ff3600080037000002eb000e
:100fc000a7c2b300874f530004003a00afb19700a7
:100fd0008502e80043027800a3b79f000003eb00fe
:100fe00096b79f00e6c2b300954f13000c003a007d
:100ff0000ce0a00064435300d54f130003003200ff
:10100000050378000000eb0009003700afb397003c
:101010008502e80047047800a7b79f0098b79f00b3
:1010200005037800090037006a00b900008043001a
:1010300086027800b603fb000703b100e98f530076
:10104000f9ff360090b79f00f5ff3700b6427800f1
:10105000cac6b300d6af9f008acf52002500320027
:101060000f003c0036c6b30086cf52009e0032000f
:1010700004003c00e0cf5200f50232006b43530005
:101080000f00370046c6b30086cf5200170032006b
:101090006543430086cf5200b2003a001300370088
:1010a00036c7b30086cf52001f00320007003c0055
:1010b0006443530086cf5200140032000643e80018
:1010c00086cf5200a7003a001300370056c7b3007e
:1010d00086cf5200aa0032006343430086cf5200fd
:1010e000a0003a00e5779f000d003700e5779f00ec
:1010f000a5003700f0036600050120000100320062
:10110000050028000c867200d0ff3700e5779f00ad
:101110000c60a0009c003700e5779f000c50a000f9
:101120000c70a00098003700afb59700e5779f00de
:10113000cb027800abb79f00b5b79f00e08f52009d
:1011400002003a0001e72000b1b79f003fb39700cb
:101150008002eb00010037008502e800e6c37a0058
:10116000e0cf5300fcff3a00c5b79f001fb19700c6
:10117000e00f510005003200cfb19700830f5100fe
:101180000200310082027800c5b79f00cfb29700fd
:101190000004eb00850f52000100360005045200e8
:1011a0006806660009c2b3000f003200290037004c
:1011b0003d0290000404b200040032001d027800d9
:1011c000094a7800840ee800050037008d00780099
:1011d00000022000e5fe0700e10f400001003200a0
:1011e0000e07e8000804e900e00f5400f0ff3a00a1
:1011f0000084eb0017003700bd0290000504b20028
:1012000009003200880278009d0378003543780099
:10121000864b780005047800870ee800e04f530005
:101220000a003a0011003700880278008d0078002b
:101230003500fb0084bf9f0005047800cbfe07004b
:101240000fba9700e10f4000080032000e07e800d7
:10125000060037000c027800080678003fb49700bb
:10126000cfb497005fb59700efb59700890278007b
:101270008504e900e08f5200dfff3a00b8b79f0015
:10128000c9b79f00dab79f00ebb79f000c04780046
:1012900009c2b30004067800e00f56000f003a00c0
:1012a000660237003d0290000404b20004003200e0
:1012b0001d027800094a7800840ee8000500370016
:1012c0008d00780000022000a8fe0700e10f40001a
:1012d000010032000e07e8000804e900e00f5400a6
:1012e000f0ff3a0055023700afb097007003660078
:1012f00041047800a1b79f00cfc4de000905780043
:101300008a0578000800be000a01be004800de0021
:10131000c80add0000807200e0779f00e00f5300f4
:1013200009003200e04f500007003200e14f40005a
:101330000500320026002000f0779f00887f9f0084
:10134000c6b79f000300370017002000c7b79f00f3
:10135000f8779f0078fb2f0008844700b8b79f00fc
:1013600082ff370069fb2f001a00200089844700a4
:10137000e5779f00b9b79f00cab79f007bff370092
:10138000e5779f000c0cb3008c027800050cb200ce
:101390003b003a00e00f560005003d00afb2970059
:1013a0004501be004500be00a5b79f000f003700f5
:1013b000f0026600120032002fb497004803be000e
:1013c000f69f9f0087a79f00a8b79f0098029000f4
:1013d000cfaade0095a79f00a5a79f007f98970042
:1013e0008fa097001fa19700afa19700b0b79f00f3
:1013f000c1b79f00d2b79f00e3b79f000b00370033
:10140000afb09700c102780005047800cfc4de00b9
:10141000090578008a057800a1b79f00b8b79f003a
:10142000c9b79f00dab79f00ebb79f003fb09700a6
:10143000cfb097005fb19700efb19700e00f500079
:10144000e08f5800e00f5900e08f590032003d0056
:101450006000b8006011b8003fb49700cfb49700a7
:101460005fb59700efb597003c00b300080450004b
:10147000898458000a0559008b85590022003700dd
:10148000e00f560005003d00afb297004501be00d9
:101490004500be00a5b79f000f003700f0026600b0
:1014a000120032002fb497008004eb004803be0006
:1014b0000005eb0096af9f00a7af9f00b9af9f005c
:1014c000caaf9f001fa89700afa897003fa9970039
:1014d000cfa99700a8b79f00b0b79f00c1b79f00e2
:1014e000d2b79f00e3b79f000b003700afb0970063
:1014f000c1027800a1b79f00050478000900200010
:101500000a0020000b002000b8b79f00c9b79f0059
:10151000dab79f00ebb79f009fb49700e08f5400ad
:101520000d003a001a0020003fb09700cfb097009e
:101530005fb19700efb197009ab79f00e00f50009e
:10154000e08f5800e00f5900e08f59000200320090
:101550008000eb0091b79f000c017800050420008b
:10156000020cb20082b79f00850f51003400320098
:1015700003003c00e00f5100080032004800370033
:10158000050820008fb19700858f510014003200ac
:10159000050c2000858f510041003a0066db2000d9
:1015a00015c0b3003600be003601be003fb4970040
:1015b000cfb497005fb59700efb597000040e1000a
:1015c00001c8e10002d0e10003d8e1003300390096
:1015d0008542e800f4cf5200f2ff3a002f003700b6
:1015e00015c0b30000012000010020006011b80008
:1015f0003fb49700cfb497005fb59700efb5970061
:101600000040e10001c8e10002d0e10003d8e100a0
:1016100022003900490020000000d0008180d20063
:101620000281d2008381d2008904e900faff3a00e6
:101630008542e800f0cf5200edff3a001700370076
:1016400015c0b30080002000010020006011b80028
:101650003fb49700cfb497005fb59700efb5970000
:101660000040e10001c8e10002d0e10003d8e10040
:101670000a003900390020000000d0008180d2002b
:101680000281d2008381d2008904e900faff3a0086
:101690008542e800f5cf5200edff3a00e5779f0064
:1016a0006f7597009fb597008a02fb008b8f5200e1
:1016b00002003d00eb779f00040037001fb0970049
:1016c000850f500001003d0095b79f00e00f5200cc
:1016d00003003200e3026600010032000402e90068
:1016e0000500240085026600060032009fb09700c6
:1016f000810f520002003400010252000100370045
:101700000002eb006f7197008001eb008202fb008a
:10171000f3af9f00850f5200020034008502520093
:10172000f5af9f00640266003b003200e2026600f3
:1017300061026600e08f520011003200bd0290008d
:101740000504b200080032009d027800b6c2b30062
:10175000e00f52000100320006c3e800864a78001c
:10176000850ee80015003700b0022000e00f52009f
:10177000010032000080e8008d0078000c00370086
:10178000e00f52000e0032003d0290000404b2004f
:10179000050032001d02780005c2b300054a78003a
:1017a000840ee800050037008d007800000220005c
:1017b0006efd0700e10f4000010032000e07e80057
:1017c0007faa9700e00f52004f00320008c3b30019
:1017d000840478003d0290000404b200040032004a
:1017e0001d027800084a7800840ee80005003700e2
:1017f0008d007800000320005cfd0700e10f400031
:10180000010032000e07e8008904e900f1ff3a0008
:10181000f9af9f003c003700ffaa9700e08f52000d
:10182000140032006802660012003a0008c2b300d9
:10183000850478003d0290000404b20004003200e8
:101840001d027800084a7800840ee8000500370081
:101850008d0078000002200044fd0700e10f4000e9
:10186000010032000e07e8008904e900f1ff3a00a8
:10187000f9af9f00e202660061026600e08f52004d
:1018800011003200bd0290000504b20008003200d1
:101890009d027800b6c2b300e00f52000100320092
:1018a00006c3e800864a7800850ee8001500370078
:1018b000b0022000e00f5200010032000080e8007a
:1018c0008d0078000c003700e00f52000e0032004f
:1018d0003d0290000404b200050032001d027800b1
:1018e00005c2b300054a7800840ee8000500370001
:1018f0008d007800000220001cfd0700e10f400071
:10190000010032000e07e8001fb39700e5da20005f
:101910000602e900f0046600c223dd000c05780031
:10192000c7a79f000a02b2006323b900e99f9f0086
:10193000060478004322dd00b8a79f00850242001c
:10194000da9f9f00e5af9f00a30037009fb5970087
:101950000fb097008b05e900010420009bb79f00a2
:10196000810f50007300320003003c00e00f500074
:10197000080032007e003700040820000fb19700f5
:10198000840f510056003200040c2000840f5100d7
:1019900077003a00e00f56001f003d00efa99700c6
:1019a0003304be002305be003fb09700cfb09700c0
:1019b0005fb19700efb197000802be000a03be00b6
:1019c0009f0107000802be000a03be00e0779f00e7
:1019d0000000fb00cf80de0001017800820178006a
:1019e000000207003fb29700cfb297005fb39700a5
:1019f000efb397000002520081825a0002035b009d
:101a000083835b00b4b79f00c5b79f00d6b79f0024
:101a1000e7b79f002e003700ef9a9700e08f520043
:101a2000220032006fab97003fb29700cfb2970011
:101a30003604be002605be000400be000801be003c
:101a400084bf9f00f5b79f000005eb0058fc07001e
:101a50000801be00e0779f000000fb00cf80de00a1
:101a6000c60007000fba9700ffb297008aaf9f0029
:101a70000004520081845a00d8a79f00e9a79f0064
:101a80008004eb00f9a79f005fa09700efa09700ec
:101a90007fa197008fa99700b0b79f00c1b79f00a3
:101aa000d2b79f00e3b79f0009003700efa8970067
:101ab0003fb1970011027800110009000481d8009d
:101ac000a4002000110009000480d800e1779f00e5
:101ad000ef7197000343b000e3779f0024003700c5
:101ae000f4e52000df9a9700e08f520001003200f9
:101af000e4e420003fb09700cfb097005fb19700bb
:101b0000efb197004fa397000603e90005003300eb
:101b10008301d1000281d3008180d3000080d300f3
:101b2000f9ff37006f00600064407800e0779f00a5
:101b30000f0037003fb29700cfb297005fb3970016
:101b4000efb397003fa497000804e90005003300b5
:101b50008703d1000683d3008582d3000482d3009b
:101b6000f9ff3700674262000443b000e4779f004a
:101b70003d0290000404b200070032009d0278008c
:101b80006f729700844a7800850ee800e04f52009b
:101b900007003a0007003700ef7497008d007800c7
:101ba0000900fb0071fc0700e10f4000010032005a
:101bb0000e07e8004fa59700bfa597006fa89700f4
:101bc00064055500e385550068005000caa79f00d2
:101bd000bba79f00e0af9f009fb09700e08f500031
:101be0005aff3a0068066600140032007fa9970089
:101bf000e00f51001100340008c2b30082047800e5
:101c00003d0290000404b200040032001d0278007e
:101c1000084a7800840ee800050037008d0078003f
:101c20000002200051fc0700e10f400001003200db
:101c30000e07e8008904e900f1ff3a00dfa99700e8
:101c400013407800e0779f00e04f500095fc3a0089
:101c50000e0078004f0778004f06be004f05be000b
:101c60004f04be00ef03b100000006000200fa00be
:101c7000889fbe0001047800a0ff9f0038029000fa
:101c8000840278000504b200020032000000fb006c
:101c900035003700e202620005003a000403b30099
:101ca00015049800340498000080eb002e003700e3
:101cb000d8049000e08f540006003a001200200083
:101cc000e68057004800900034fb07001904980094
:101cd00023003700a8029000e08f520008003a006d
:101ce00025ea20000430a00025049800050c7800a7
:101cf000340498002500200055049800150498002d
:101d000018019000a80090004800900023fb0700f5
:101d1000280290008082eb0015049800affa97002b
:101d2000054a7800040ce8002ffa9700ea4f5200a9
:101d30000b003a00380290000410b2000800320094
:101d400018019000a80090004800900013fb0700c5
:101d50000002eb00a802900014049800050c780023
:101d60002ffa97000400fb004f04be000080fa0029
:101d70000000060000c0da0000000600020ab900f8
:101d8000001bb9000200b80081004200810043003e
:101d900000000600889fbe008a9fbe003004be007f
:101da0002005be000404440085844c0006054d0057
:101db00087854d000898be000a90be000440e100ef
:101dc00005c8e10006d0e10007d8e10002003100bb
:101dd000680040001008e8004f05be004f04be0038
:101de000000006001000fa00889fbe008a9fbe0017
:101df000110020000605be000404be003002be0033
:101e00002003be00c4b79f00d5b79f00e6b79f0070
:101e1000f7b79f000802520089825a000a035b004c
:101e20008b835b0084bf9f0095bf9f00a6bf9f0070
:101e3000b7bf9f000498be000698be004fb297003f
:101e4000dfb297006fb39700ffb397000820e1005f
:101e500009a8e1000ab0e1000bb8e1000100390077
:101e60008000eb004f05be00108810004f04be003c
:101e70000080fa00000006001400fa00889fbe00ef
:101e80008a9fbe008c9fbe000006eb003e0007004c
:101e9000ccb79f00bcb79f00acb79f009cb79f001a
:101ea0008cb79f000605be000404be000d04200090
:101eb0004fb39700bfb29700860343002fb297003d
:101ec000e00f530004003d003d0007000f004000fc
:101ed000b0ff070003003700390007000f00400083
:101ee000c0ff0700cfb2970095bf9f00e08f520060
:101ef000090035002b000700140020000500200019
:101f00006033b8000000720081807200020173002b
:101f1000838173001c0007000c06e8008d0f56003b
:101f2000e3ff3a001fba9700e00f520005003d00a2
:101f30000802be000a03be0000fe2f000f00400092
:101f400094ff07004faa9700e00f520008003a00e4
:101f50000fb497009fb497002fb59700bfb59700b7
:101f6000d8b79f00e9b79f00fab79f008bbf9f00cb
:101f70000c0007004f06be004f05be004f04be0018
:101f80000080fa00000006000100070000000600c3
:101f900090b79f00a1b79f00b2b79f00c3b79f0043
:101fa0000000060001000700000006001fb09700b7
:101fb000afb097003fb19700cfb197000000060087
:101fc0004f2bde00f9ff07008683730085824200f5
:101fd0004f23de00a7b79f008682720004024200f2
:101fe00095b79f00ffaa97004f2bde008582420025
:101ff0000602720084b79f006faa97004f23de008d
:102000000402420086827200f5af9f004f18de0086
:1020100000027200e5ff0700e4af9f0000004000ef
:102020008180480002014900838149000802be0006
:102030000a03be00d6ff070000fe2f0000000600c6
:10204000881f780018002000881f78008aff07008a
:102050008f87e9004f04780000000600801feb0026
:1020600085ff07008f87e90000000600889fbe00fb
:102070008a9fbe00e00f5000e08f5800e00f59002b
:10208000e08f59000c003d006044b8006055b80076
:102090000000540081805c0002015d0083815d00ce
:1020a000180020001500070008003d001800070078
:1020b0000004eb00050037000004eb000f000700f0
:1020c00002003d001200070018002000dcff07009e
:1020d000e00f5400060032006022b8006033b80000
:1020e0000000520081805a0002015b0083815b0086
:1020f0004f05be004f04be0000000600e00f520076
:10210000e08f5a00e00f5b00e08f5b0000000600ec
:102110006044b8006055b8000402540085825c0039
:1021200006035d0087835d0000000600889fbe00f7
:102130008a9fbe008c1f7800e00f5000e08f58008f
:10214000e00f5900e08f59000d003d006044b800d9
:102150006055b8001c0020000000540081805c0025
:1021600002015d0083815d000820e10009a8e10013
:102170000ab0e1000bb8e1000d003d000800370097
:102180000006eb00e00f5200e08f5a00e00f5b000a
:10219000e08f5b0006003d006044b8006055b80069
:1021a0000402540085825c0006035d0087835d00a5
:1021b000aaff0700e00f5600060032006022b800b8
:1021c0006033b8000000520081805a0002015b00b9
:1021d00083815b004f0678004f05be004f04be00b0
:1021e00000000600889fbe008a9fbe008c1f7800fa
:1021f0000006eb00e00f5000e08f5800e00f5900a0
:10220000e08f590007003d006044b8006055b800f9
:102210001c0020000000540081805c0002015d0071
:1022200083815d00e00f5200e08f5a00e00f5b00f9
:10223000e08f5b0007003d006044b8006055b800c7
:102240000c00a2000402540085825c0006035d00bd
:1022500087835d000c000700e00f56000600320087
:102260006022b8006033b8000000520081805a003c
:1022700002015b0083815b004f0678004f05be00c2
:102280004f04be0000000600889fbe008a9fbe006b
:102290008c9fbe000404b8000506b80089044600ff
:1022a00060854e000606b8000a054600e0854e002f
:1022b0000706b8008b054600040eb80089044600e6
:1022c0000a854e00e0854d00050eb8000a0546005f
:1022d0008b854e00060eb8008b0546000416b8002c
:1022e0000a0546008b854e000516b8008b05460092
:1022f000041eb8008b0546000800be000a01be009f
:102300004f06be004f05be004f04be000000060091
:020000040000fa
:102310003e45000072610000736500005f6d0000c3
:10232000656d00006f720000790d0000003e000036
:102330005772000069740000652000006d650000a0
:102340006d6f0000727900002e20000061640000b3
:102350006472000065730000733a0000256c000091
:10236000782c000064610000746100003a250000d0
:10237000780d00000a0000003e570000726900005e
:1023800074650000206d0000656d00006f72000034
:10239000792e000020610000646400007265000076
:1023a000737300003a2500006c7800000d0a0000ed
:1023b00000450000727200003a2000006e750000b7
:1023c0006c6c00000d0000004578000020610000ea
:1023d00064640000726500007373000020730000e5
:1023e00065740000746900006e6700002e00000034
:1023f00045520000524f0000523a00002069000090
:102400006e760000616c00006964000020690000c5
:102410006e64000065780000202500006c780000e4
:102420000d0a000000460000616900006c650000b4
:1024300064200000746f0000206300006f6e0000d5
:102440007665000072740000206800006578000066
:102450002d3e0000707200006f6700006d65000087
:102460006d0d00000a200000000000004552000031
:10247000524f00005221000021210000210d0000d8
:1024800000730000747200003a2000002573000001
:102490000d0a000000660000616900006c65000024
:1024a00064200000746f000020720000656100006d
:1024b00064200000736400000d000000544500001b
:1024c000535400002e4800004558000000660000ec
:1024d000616900006c65000064200000746f0000fa
:1024e000206f0000706500006e200000666900002b
:1024f0006c6500002e0d0000004f000070650000ac
:102500006e20000048450000582000006669000069
:102510006c6500002e0d000000700000617200006c
:1025200073650000206100006e64000020680000f8
:10253000657800000d00000066610000696c000015
:1025400065640000207400006f200000636c0000d0
:102550006f7300006520000073640000200d000010
:102560000053000044200000666900006e61000016
:102570006c6900007a6500000d000000474f000004
:10258000544f0000202500006c7800000d0a000068
:1025900000000000009500000000000000000000a6
:1025a00001f90000000000000000000008870000a2
:1025b000040000000000000009af0000000000005f
:1025c000010000000a1b00000000000001000000e4
:1025d0000cc3000001000000000000000daf00006f
:1025e000020000000000000010ff000000000000da
:1025f0000000000011ff00000000000001000000ca
:1026000012ff0000000000000100000018ff0000a1
:10261000000000000100000019ff000000000000a1
:102620000100000020ff000000000000000000008a
:1026300021ff0000000000000000000026df000075
:1026400001000000000000003773000000000000df
:10265000000000003a250000040000000000000017
:102660003b250000000000000000000029ff0000e2
:10267000040000000000000017ff00000000000040
:102680000000000021230000242500002627000070
:10269000282900002d4000005e5f0000607b0000e4
:1026a0007d7e0000205c00002f3a00002a3f0000e1
:1026b000223c00003e7c00002e2e000000000000a6
:1026c000b65d00008a5d0000e8650000c45d0000a2
:0c26d000905f0000b26400001a6500007a
:020000040000fa
:1026dc000200fa00000f78001e027800f4698800ee
:1026ec000080fa00000006000200fa000002eb0075
:1026fc00040f780065003700c4d320001e0242008e
:10270c0015c0b300054a7800058020001e02780031
:10271c004922dd00048342009e027800240320003d
:10272c0004aab90084027800a4d2200004824200da
:10273c00f50f20008502630094437800e0c363002a
:10274c0085c27300054a7800c832de00144390003d
:10275c0060436300854273001542980005a0200079
:10276c001e0278004922dd00048342009e0278009c
:10277c002403200004aab90084027800c4d22000eb
:10278c0004824200f50f2000850263009443780018
:10279c00e0c3630085c27300054a7800c832de00ce
:1027ac001443900060436300854273001542980007
:1027bc001e0278006c22b9008402780004d4200038
:1027cc00048342009e0278002403200004aab9006e
:1027dc0084027800e4d2200004824200f50f20002d
:1027ec008502630094437800e0c3630085c27300e4
:1027fc00054a7800c832de00144390006043630041
:10280c0085427300154298001e0278006c22b900b4
:10281c008402780084d4200084824200150278005f
:10282c000400a100840a78001e0278006c22b90012
:10283c008402780084d4200084824200150278003f
:10284c000410a100840a78001e0278006c22b900e2
:10285c008402780004d42000048342000082eb0040
:10286c008082eb00048bbe001e0278006c22b90043
:10287c008402780044d42000048342000082eb00e0
:10288c008082eb00048bbe001e0fe8001e02780055
:10289c00e00f520098ff34000002eb00846a8800bd
:1028ac006022b800646a8800756a880014002000f1
:1028bc00040078000080fa00000006000000fa0016
:1028cc0089ff070000027800040078000080fa00fd
:1028dc00000006000400fa00000f780011079800b1
:1028ec001e027800140290001e00900004000100eb
:1028fc0000427800044078000080fa0000000600d6
:10290c000400fa00204798000042eb00044f7800c6
:10291c001d0037001e4278008482fb00c4d32000c7
:10292c000482420014427800e04f520015003a0035
:10293c001e4278008482fb002403200004aab90004
:10294c00040278000503200084824200b4d02000e9
:10295c0004824200944278002e42900084cf5200b0
:10296c0008003a001e4278008482fb0024032000f9
:10297c0004aab90084027800a4d02000048242008a
:10298c00050037001e4fe8001e427800e04f520051
:10299c00e0ff32000002eb00040078000080fa0037
:1029ac00000006000400fa00204798002e4090001a
:1029bc00d3ff070000027800040f78001e02780095
:1029cc00e00f520002003a000002eb000300370057
:1029dc001e027800646a90000482fb0004007800f8
:1029ec000080fa00000006000e00fa00004f98006c
:1029fc0051079800620798000002eb00040f780062
:102a0c000e489000beff07000002780014079800e3
:102a1c001e029000e00f52003c003a000042eb0016
:102a2c0044479800360037004e4290008482fb00e9
:102a3c00c4d320000482420014427800e04f5200bc
:102a4c002c0032004e4290008482fb00c4d3200044
:102a5c00048242008042eb00054a78004e4290000e
:102a6c008482fb002403200004aab90084027800ad
:102a7c00b4d32000048242008e4a9000054a7800ac
:102a8c004e4290008482fb002403200004aab9006b
:102a9c008402780004d32000048242005e0390007c
:102aac00f50f200085026300144378006043630037
:102abc0085427300054a7800de029000c82ade00c9
:102acc0014439000604363008542730015429800e4
:102adc004e4290008482fb002403200004aab9001b
:102aec0084027800a4d020000482420014079800cd
:102afc00060037004e4290000442e800444798001c
:102b0c004e429000e04f5200c7ff32001e02900070
:102b1c00e00f520002003a0034022000a5003700fa
:102b2c004e4290000482fb006c22b90084027800b3
:102b3c0084d4200084824200150278000400a10095
:102b4c00840a78004e4290000482fb006c22b9008b
:102b5c008402780084d4200084824200150278001c
:102b6c000410a100840a78004e4290000482fb00fd
:102b7c006c22b9008402780004d420000483420043
:102b8c000082eb008082eb00048bbe004e42900072
:102b9c000482fb006c22b9008402780044d420002b
:102bac00048342000082eb008082eb00048bbe00a9
:102bbc001e0290006e039000f50f2000850263004a
:102bcc00046b90006043630085427300056a9800b3
:102bdc00ee029000c82ade00146b90006043630084
:102bec0085427300156a98005e029000140278000a
:102bfc00e00f5200040032005e02900014027800d4
:102c0c006e009000040001005e029000240290000f
:102c1c006e00900004000100000278003407980058
:102c2c003e02900014027800e00f520003003200c4
:102c3c0064002000040f7800260037003e0290004c
:102c4c001402900061026200e00f52002100320079
:102c5c003e029000240290006123b8001e029000f6
:102c6c00f50f20008502630004589000604060005e
:102c7c0085427000055a9800c832de001458900046
:102c8c006040600085427000155a9800f50f2000d6
:102c9c00858263002458900060406000854270007b
:102cac00255a9800c83ade00345b900060436300fc
:102cbc0085427300355a98003e029000a4029000a1
:102ccc0004202000848f52000200360044022000b1
:102cdc00040f78001e027800e00f52000b003a003f
:102cec001e0090003600070000027800040f7800e8
:102cfc001e027800e00f520004003a001e00900003
:102d0c008d01070000027800040f78001e02780085
:102d1c00e00f520017003a00846a8000e00f520066
:102d2c0023003a001e029000846a88001e03900063
:102d3c00c64b90008783fb00564890000080fb0038
:102d4c004800dd008083730007027800e64b90009a
:102d5c008783fb00764b90000683fb004833dd0035
:102d6c000683730086027800646a8800756a88009e
:102d7c000f0037004e4290008482fb002403200099
:102d8c0004aab90084027800b4d320000482420063
:102d9c008042eb00054a78004e4290008482fb0092
:102dac00c4d320000482420015c0b300054a780049
:102dbc001e027800040078000080fa000000060073
:102dcc001000fa007007980014c0b300044f78008c
:102ddc000002eb00140798007e029000e462900061
:102dec008582fb00746290000482fb004822dd00a7
:102dfc0004827200440390007e0290008462900072
:102e0c008582fb00146290000482fb004822dd00e6
:102e1c0004827200840278007e029000846b900021
:102e2c008783fb00146a90000482fb004822dd00bb
:102e3c0004827300850078006011b80004007800eb
:102e4c0006000100004278000404a200e04f52008a
:102e5c000300320084002000140798003201370070
:102e6c007e029000c46290008582fb005462900048
:102e7c000482fb004822dd00048272000403780007
:102e8c006022b800048bbe007e0290008462900029
:102e9c008582fb00146290000482fb004822dd0056
:102eac0004827200440798004e029000e4fa9300ea
:102ebc0054c5b30084cf52007f003a004e029000fc
:102ecc00f4fa9300a4cab30084cf52007a003a00fb
:102edc004e029000e472900064c4b30084cf5200a0
:102eec0027003a004e029000f472900014c4b30014
:102efc0084cf520022003a004e029000847a900057
:102f0c0044c5b30084cf52001d003a004e0290001d
:102f1c00947a900014c3b30084cf520018003a0086
:102f2c004e029000e462900094c2b30084cf520031
:102f3c0013003a007e02900094427800e0c26200d6
:102f4c00054a780094429000e0c262001542980055
:102f5c00a4429000e0c2620025429800b442900066
:102f6c00e0c26200354298007e02900025c0b3009a
:102f7c00656a98000042eb00044f78004e00370061
:102f8c007e029000846290008582fb0014629000a7
:102f9c000482fb004822dd00048272002405b0008c
:102fac009442780064c4b30084cf520042003a00cb
:102fbc007e029000846290008582fb001462900077
:102fcc000482fb004822dd00048272003405b0004c
:102fdc009442780014c4b30084cf520036003a00f7
:102fec007e029000846290008582fb001462900047
:102ffc000482fb004822dd00048272004405b0000c
:10300c009442780044c5b30084cf52002a003a00a1
:10301c007e029000846290008582fb001462900016
:10302c000482fb004822dd00048272005405b000cb
:10303c009442780034c3b30084cf52001e003a008f
:10304c007e029000846290008582fb0014629000e6
:10305c000482fb004822dd00048272002404b000cc
:10306c009442780094c2b30084cf520012003a000c
:10307c007e02900094427800e0c26200054a78001b
:10308c0094429000e0c2620015429800a442900065
:10309c00e0c2620025429800b4429000e0c2620097
:1030ac00354298007e02900035c0b300656a9800e6
:1030bc000042eb00044f78001e427800e04f5200b3
:1030cc00990032007e029000846290008582fb00a1
:1030dc00146290000482fb004822dd00048272001e
:1030ec00540798005e029000e4fa930054c5b300b4
:1030fc0084cf520005003a005e029000f4fa93006f
:10310c00a4cab30084cf5200030032004400200054
:10311c0014079800840037005e029000e41bb00096
:10312c00340798007e0290008042eb00656a98009c
:10313c000042eb0044479800500037003e029000dc
:10314c00844a90008582fb00144890000080fb00ac
:10315c004800dd008082720005037800a44a9000cc
:10316c008582fb00344a90000482fb004822dd007b
:10317c0004827200840378007e029000f50f200018
:10318c008502630014407800604060008542700046
:10319c00054a7800c832de001440900060406000a0
:1031ac008542700015429800f50f2000858263005f
:1031bc0024409000604060008542700025429800d9
:1031cc00c83ade00344390006043630085427300cc
:1031dc00354298003e029000c4429000454f980042
:1031ec004e4a90000482fb00ee0f520019003e0084
:1031fc0015002000042add0005052400850262006c
:10320c00e08f52000b003a0005802100850262001d
:10321c00e08f52000b003a0062026200e00f520095
:10322c000c0032007e02900015c0b300656a980055
:10323c00080037007e02900025c0b300656a980034
:10324c00040037007e02900035c0b300656a980018
:10325c00000000007e029000646a9000e04f520073
:10326c000a003a003e0290007002420034079800b7
:10327c004e4290000442e800444798004e429000b1
:10328c00e34f5200adff3600010037000000000094
:10329c007e029000646a9000e04f520022003a00d7
:1032ac007e039000865b90008783fb00165890008d
:1032bc000080fb004800dd0080837300070278006b
:1032cc00a65b90008783fb00365b90000683fb00b7
:1032dc004833dd000683730086027800e00f52004d
:1032ec00e08f5a000e003a007e029000845a900043
:1032fc00e0c26200055a9800945a9000e0c2620045
:10330c000514a000155a9800a45a9000e0c262005f
:10331c00255a9800b45a9000e0c26200355a9800c1
:10332c000002eb00140798001e02900004007800c5
:10333c000080fa00000006001800fa00889fbe000a
:10334c00300f98000002eb00040f78000042eb00f5
:10335c00644798000042eb00744798003e0a9000c6
:10336c00e46290008582fb00746290000482fb0092
:10337c004822dd0004827200440490003e0a900052
:10338c00846290008582fb00146290000482fb0032
:10339c004822dd0004827200840378003e0b90000a
:1033ac00964078000180fb00964090008180fb00e5
:1033bc00c808dd0001007000000278002640900073
:1033cc000080fb00364390000683fb004833dd0091
:1033dc0006037000860278003e0b90000668900091
:1033ec000080fb00166b90000683fb004833dd0069
:1033fc0006037000870078000401be000600780008
:10340c0008000100004278000404a200e04f5200c2
:10341c000300320084002000040f78003d033700c5
:10342c003e0a9000c46290008582fb0054629000ba
:10343c000482fb004822dd000482720084037800c1
:10344c003e0b9000164278000480fb0096409000e2
:10345c008180fb00c808dd000100700000027800cc
:10346c00264090000080fb00364390000683fb0052
:10347c004833dd000603700086027800848bbe00a2
:10348c003e0a9000846290008582fb0014629000da
:10349c000482fb004822dd0004827200440798007d
:1034ac004e029000e4fa930054c5b30084cf52004e
:1034bc0005003a004e029000f4fa9300a4cab3003f
:1034cc0084cf52000300320034002000040f780037
:1034dc005c0237003e0a9000846290008582fb00fb
:1034ec00146290000482fb004822dd00048272000a
:1034fc00e1002000040078002b2107000002780076
:10350c00540798003e0a9000846290008582fb006c
:10351c00146290000482fb004822dd0004827200d9
:10352c006d024200944278003e0a9000556a980061
:10353c003e0b9000164078008083fb0016409000f4
:10354c000080fb004800dd008083730007027800d8
:10355c00a64390008783fb00364390000683fb0054
:10356c004833dd0006837300860278005e0390000a
:10357c00070020000403430085834b003e0a9000a3
:10358c00f50f20008502630044409000604060000d
:10359c008542700045429800c832de0054409000cd
:1035ac00604060008542700055429800f50f200085
:1035bc00858263006440900060406000854270002a
:1035cc0065429800c83ade00744390006043630083
:1035dc0085427300754298003e0a90008462900008
:1035ec008582fb00146290000482fb004822dd00ff
:1035fc000482720070024200944278003e0a9000ed
:10360c00456a98003e0a9000846290008582fb0017
:10361c00146290000482fb004822dd0004827200d8
:10362c006101200004007800df2007000002780010
:10363c006123b8003e0a9000f50f2000850263005c
:10364c00445890006040600085427000455a9800d4
:10365c00c832de0054589000604060008542700013
:10366c00555a9800f50f200085826300645890002d
:10367c006040600085427000655a9800c83ade00d0
:10368c00745b90006043630085427300755a980028
:10369c003e0b9000c65b90008783fb005658900051
:1036ac000080fb004800dd00808373000702780077
:1036bc00e65b90008783fb00765b90000683fb0043
:1036cc004833dd000683730086027800e00f520059
:1036dc00e08f5a0022003a003e0a9000846290006b
:1036ec008582fb00146290000482fb004822dd00fe
:1036fc00048272004102200004007800c4200700fc
:10370c000003be003e0a9000f50f20008502630006
:10371c00445890006040600085427000455a980003
:10372c00c832de0054589000604060008542700042
:10373c00555a9800f50f200085826300645890005c
:10374c006040600085427000655a9800c83ade00ff
:10375c00745b90006043630085427300755a980057
:10376c003e0a9000c44290008582fb0054439000b6
:10377c000683fb004833dd0086827200050078006a
:10378c00e44290008582fb00744290000482fb00ae
:10379c004822dd0004827200840078003e0a90000a
:1037ac00446a90000483fb00070020003e0990004f
:1037bc00c25990008381fb00525c90000884fb008e
:1037cc004844dd008881710003027800e2599000c2
:1037dc008381fb00725990000281fb004811dd00cf
:1037ec00028171008202780004b9b90002017800ec
:1037fc0006acb9008801780003014100060378008b
:10380c00040278000432b8000501410082027800fd
:10381c000003420081834a003e0a9000f50f20000d
:10382c00850263000448900060406000854270008f
:10383c00054a9800c832de001448900060406000d1
:10384c0085427000154a9800f50f200085826300b0
:10385c00244890006040600085427000254a980022
:10386c00c83ade00344b900060436300854273001d
:10387c00354a98003e0a9000846290008582fb00d5
:10388c00146290000482fb004822dd000482720066
:10389c00110120000400780043200700800278000a
:1038ac003e0a9000f60f200006836200a46b900085
:1038bc00e0c3630006c37300266a9800c82ade00c2
:1038cc00346b90006043630085427300356a980046
:1038dc003e0a9000846290008582fb001462900086
:1038ec000482fb004822dd000482720031012000ba
:1038fc00040078002c20070000027800050020004e
:10390c0014079800250798001e029000ae02900044
:10391c00e00f5200e08f5a000d003a003e0a900072
:10392c00846290008582fb00146290000482fb008c
:10393c004822dd000482720001022000040078009d
:10394c00332007000002be001407980025079800da
:10395c003e0a9000846290008582fb001462900005
:10396c000482fb004822dd0004827200b1002000ba
:10397c00040078000c20070000027800640798000f
:10398c006e029000e00f5200050032006e029000b3
:10399c006102620004427800e04f520003003200e2
:1039ac0044022000040f7800260137003e0a9000e4
:1039bc00a46a90008582fb00346a90000482fb00ac
:1039cc004822dd0004827200c522dd006e029000e8
:1039dc00048242008402e9006e029000110009008a
:1039ec008482d8000002780005002000740798003b
:1039fc00050f98005e0290006121b8003e0a90000d
:103a0c00446a90000483fb00070020003e089000ed
:103a1c00c05890008180fb00505c90000884fb0033
:103a2c004844dd008880700001027800e058900066
:103a3c008180fb00705890000080fb004800dd0086
:103a4c00008070008002780004b8b9000000780093
:103a5c0006acb9008800780001004000060378002d
:103a6c00040278000432b80005004000800278009f
:103a7c000203420083834a007e0290008e0a90006b
:103a8c000602420087824a001e039000ae0390009b
:103a9c000402530085825b00140f9800250f9800d8
:103aac003e0a9000546a90000482fb00050020003e
:103abc000401be001e089000ae08900039f4070007
:103acc000002be000403be003e0a9000f50f200069
:103adc008502630044509000604060008542700095
:103aec0045529800c832de0054509000604060008f
:103afc008542700055529800f50f200085826300b6
:103b0c0064509000604060008542700065529800df
:103b1c00c83ade0074539000604363008542730022
:103b2c00755298003e0b9000c65390008783fb00a3
:103b3c00565090000080fb004800dd00808373002d
:103b4c0007027800e65390008783fb0076539000c1
:103b5c000683fb004833dd00068373008602780081
:103b6c0046ff200007002000860f5200878f5a0066
:103b7c0004003e003e0a900015c0b300656a980030
:103b8c001b0037003e0b9000c65390008783fb0050
:103b9c00565090000080fb004800dd0080837300cd
:103bac0007027800e65390008783fb007653900061
:103bbc000683fb004833dd00068373008602780021
:103bcc0046ff2f0007002000860f5200878f5a00f7
:103bdc0004003e003e0a900025c0b300656a9800c0
:103bec00030037003e0a900035c0b300656a9800a8
:103bfc003e0a9000646a9000e34f52004d003a0078
:103c0c003e0a9000846290008582fb001462900052
:103c1c000482fb004822dd0004827200c1022000f5
:103c2c00040078007a1f07000003be003e0a9000d3
:103c3c00f50f20008502630044489000604060004e
:103c4c0085427000454a9800c832de005448900006
:103c5c006040600085427000554a9800f50f2000c6
:103c6c00858263006448900060406000854270006b
:103c7c00654a9800c83ade00744b900060436300bc
:103c8c0085427300754a98003e0b9000864b90005d
:103c9c008783fb00164890000080fb004800dd0085
:103cac008083730007027800a64b90008783fb008b
:103cbc00364b90000683fb004833dd00068373000f
:103ccc00860278007e0390008e0b90000403430064
:103cdc0085834b003e0a9000f50f2000850263009f
:103cec0004509000604060008542700005529800be
:103cfc00c832de00145090006040600085427000b5
:103d0c0015529800f50f2000858263002450900016
:103d1c00604060008542700025529800c83ade0071
:103d2c003453900060436300854273003552980011
:103d3c003e0037003e0a9000c44a9000e0c2620088
:103d4c00454a9800d44a9000e0c26200554a980057
:103d5c00e44a9000e0c26200654a9800f44a900080
:103d6c00e0c26200754a98003e0b9000864b9000b2
:103d7c008783fb00164890000080fb004800dd00a4
:103d8c008083730007027800a64b90008783fb00aa
:103d9c00364b90000683fb004833dd00068373002e
:103dac00860278003e0b9000a66b90008783fb0088
:103dbc00366b90000683fb004833dd0006837300ee
:103dcc004433de00070020000403430085834b00ce
:103ddc003e0a9000f50f200085026300045090000d
:103dec00604060008542700005529800c832de00c9
:103dfc00145090006040600085427000155298008d
:103e0c00f50f200085826300245090006040600014
:103e1c008542700025529800c83ade003453900059
:103e2c00604363008542730035529800ee029000a7
:103e3c0004202000848f520002003600440220002f
:103e4c00040f78003e0a9000646a9000e34f520021
:103e5c000d0032001e027800e00f5200a600320066
:103e6c004e029000a4c2900094c2b30084cf5200c2
:103e7c00050032004e029000a4c2900084c2b30030
:103e8c0084cf52009e003a004e029000b452900033
:103e9c008582fb00445290000482fb004822dd0026
:103eac0004827200e00f52000a003a004e029000a9
:103ebc00a4c2900094c2b30084cf52000700320019
:103ecc004e029000a4c2900084c2b30084cf520072
:103edc000200320034002000040f78001e0278002b
:103eec00e00f5200440032006e4290000404a20025
:103efc00e04f52004000320014c0b30064479800f9
:103f0c003e0a9000e46290008582fb00746290008f
:103f1c000482fb004822dd000482720044049000fd
:103f2c003e0a9000846290008582fb00146290002f
:103f3c000482fb004822dd00048272000400780039
:103f4c003e0b9000164278008483fb009640900054
:103f5c008180fb00c808dd008183730007027800b4
:103f6c00a64390008783fb00364390000683fb003a
:103f7c004833dd0006837300860278004e03900000
:103f8c00a67390008783fb00367390000683fb00ba
:103f9c004833dd0006837300070020000402430051
:103fac0085824b003e0b9000866b90008783fb0054
:103fbc00166b90000683fb004833dd00068373000c
:103fcc00800078000401be000600780008000100a3
:103fdc00004278000404a200e04f520003003200bb
:103fec0084002000040f78004a0037000002eb0028
:103ffc00040f78003f0037001e027800e00f5200db
:10400c00410032007e4290000404a200e04f5200b6
:10401c003f00320014c0b300744798003e0a900071
:10402c00e46290008582fb00746290000482fb00c5
:10403c004822dd0004827200440490003e0a900085
:10404c00846290008582fb00146290000482fb0065
:10405c004822dd0004827200840378003e0b90003d
:10406c00964078000180fb00964090008180fb0018
:10407c00c808dd00010070000002780026409000a6
:10408c000080fb00364390000683fb004833dd00c4
:10409c00060370008602780066024200e0824a0045
:1040ac003e0b9000066890000080fb00166b9000a1
:1040bc000683fb004833dd000603700087007800a0
:1040cc000401be00060078000800010000427800e0
:1040dc000404a200e04f52000300320084002000d0
:1040ec00040f78000b0037000002eb00040f78007f
:1040fc0000000000eafc370000000000050037005b
:10410c000000000003003700000000000100370031
:10411c00000000001e027800040078004f04be006e
:10412c000080fa00000006000600fa0040479800e4
:10413c004e409000f2f90700000278001407980036
:10414c001e029000e00f520002003a000082eb00c9
:10415c004e003700110020001e009000cf0a07000f
:10416c008000eb001e009000cc0a07001e0290009d
:10417c00e46290008582fb00746290000482fb0074
:10418c004822dd0004827200b40290001e029000ee
:10419c00046b90000683fb00146a90000482fb0001
:1041ac004822dd00040273000400780005000100c1
:1041bc000042eb00044f7800270037001e427800c5
:1041cc008482fb002403200004aab90004027800b6
:1041dc000503200084824200b4d0200004824200f7
:1041ec00944278004e42900084cf520019003a005d
:1041fc001e4278008482fb00c4d32000048242005b
:10420c0015c0b300054a78001e4278008482fb007a
:10421c002403200004aab9008402780094d320005f
:10422c00048242008042eb00054a78001e4278006e
:10423c008482fb002403200004aab90084027800c5
:10424c00b4d32000048242008042eb00054a78007f
:10425c00040037001e4fe8001e427800e04f520069
:10426c00d6ff3200856a80001e029000848f5200b7
:10427c0005003a006022b800646a8800756a8800fc
:10428c000002eb00846a88000002eb000400780056
:10429c000080fa00000006000c00fa0040079800ad
:1042ac00214f980014002000140798000042eb00e6
:1042bc00444798000042eb00544798004e0290008f
:1042cc0094427800e4c2b30084cf520099003a00c3
:1042dc004e0290000402e8001442780064479800f3
:1042ec006e429000e04f520004003200ee4290000b
:1042fc00f4c2b30084cf520002003a0034c0b300c1
:10430c00a4003700ee429000e4c2b30084cf520008
:10431c008a003a004e0290000482e80014427800b1
:10432c00644798006e429000e04f52000400320047
:10433c00ee429000f4c2b30084cf520081003a00e8
:10434c0034c0b300930037001e029000e10f5200fe
:10435c0055003a005e4290000442e8005447980031
:10436c00ee42900004c4b30084cf52000400360027
:10437c00ee429000a4c5b30084cf52003c0036003e
:10438c00ee429000f4c2b30084cf52000400360019
:10439c00ee42900094c3b30084cf52003400360038
:1043ac006e429000e04f520031003500ee4290001a
:1043bc00e4c2b30084cf52000c003a004e4290008d
:1043cc000404a200e04f52000500320014c0b300f8
:1043dc00444798000042eb005447980024003700f3
:1043ec002400200014079800210037000042eb0045
:1043fc00044f7800080037009e4278000582fb00cd
:10440c0025342900e5427a006e42900084cf520098
:10441c00050032001e4fe8001e427800f04f52009b
:10442c00f5ff360001003700000000001e42780046
:10443c00f14f52000e003a002e4a90000404a200e4
:10444c00e04f520008003a00ee429000f4c3b30073
:10445c0084cf520006003200ee429000a4c2b3009a
:10446c0084cf520002003200240020001407980070
:10447c004e429000e04f5200060032005e42900027
:10448c00e34f520008003600240020001407980067
:10449c00050037005e429000e84f520002003600e3
:1044ac0024002000140798001e029000e20f520016
:1044bc0025003a000042eb00044f78001900370049
:1044cc009e4278000582fb0035352900e5427a00d2
:1044dc006e42900084cf520011003a002e4a900098
:1044ec000404a200e04f520008003a00ee42900093
:1044fc00f4c3b30084cf520009003200ee429000a6
:10450c00a4c2b30084cf5200050032000002eb00bd
:10451c00140798001e029000044278001d0037001a
:10452c001e4fe8001e427800e84f5200e4ff3600b0
:10453c0005003700000000000300370000000000f9
:10454c0001003700000000004e0290001442780079
:10455c00644798006e4290000482fb000402ea005b
:10456c004f22de0004427800ce0290008502e80063
:10457c0045079800e04f520004003200ee429000d4
:10458c00f4c2b30084cf52006fff3a001e029000b9
:10459c0004427800044078000080fa000000060015
:1045ac000600fa0010079800210798000042eb0063
:1045bc00044f7800070037009e4278000582fb000c
:1045cc00ae029000048242009e42900075629800f8
:1045dc001e4fe8001e029000944278001547980088
:1045ec009e429000e4c2b30004c26a000482fb0045
:1045fc000402ea004f22de00044278009e02900082
:10460c008502e80015079800e04f52000f003200b9
:10461c001e429000e04f52000c0032009e4290006f
:10462c00f4c2b30084cf5200e3ff3a000700370016
:10463c009e4278000582fb00ae029000048242008c
:10464c0005c2b300756298001e4fe8001e42780048
:10465c00e74f5200f6ff36009e429000e4c2b300d2
:10466c0084cf52001d003a00070037009e427800ac
:10467c000582fb00ae029000048242009e42900034
:10468c00756298001e4fe8001e029000944278005c
:10469c00154798001e4290000482fb000402ea00b9
:1046ac004f22de00044278009e0290008502e80052
:1046bc0015079800e04f5200ecff3a000700370056
:1046cc009e4278000582fb00ae02900004824200fc
:1046dc0005c2b300756298001e4fe8001e427800b8
:1046ec00ea4f5200f6ff36000080fa000000060088
:1046fc001a00fa00200f9800310f9800420f980012
:10470c000002eb00140f9800680247000041eb0018
:10471c00be08900004007800320107000002780007
:10472c00340f98003e0a9000e00f520002003a004d
:10473c000082eb00d60037004e029000de029000a3
:10474c0074079800050f98006e029000e4629000c8
:10475c008582fb00746290000482fb004822dd001d
:10476c0004827200e40290006e029000046b9000d0
:10477c000683fb00146a90000482fb004822dd00d3
:10478c000402730004007800050001000042780068
:10479c00e04f5200090032004e0a90006e02620097
:1047ac00e00f5200050032006e029000a5c1b3006c
:1047bc00057298000082eb00b50037002e0a9000bd
:1047cc00e00f520005003a006e02900025c2b300c3
:1047dc00057298000082eb00ad0037008040eb00c2
:1047ec003e089000acfe0700004278002447980079
:1047fc002e429000e14f52001c003a004e029000f5
:10480c00de02900074079800050f98000002eb0080
:10481c00140f9800ae0890003e08900060ff07004f
:10482c002e0a90007402b0008400780072024700d7
:10483c006e01470068004700270020000003eb00d2
:10484c008002eb008201780001017800ae08900034
:10485c00a103070000027800040f78001e02780004
:10486c00e00f520006003200240037006e02900068
:10487c0035c1b300057298000082eb00840037004c
:10488c004e0a900068026200e00f520008003a00e5
:10489c0068024700ae089000040078007f00070013
:1048ac00004278000404a200e04f52000e003200d7
:1048bc002e0a9000740a9000340798006602470094
:1048cc0012c0b300840078002e0890000b0d070076
:1048dc0000027800040f78004e0a90000420a0001b
:1048ec00440f98001a003700ce0a9000b4ff2f0036
:1048fc0004826200440f9800150037001e027800f5
:10490c00ef0f520012003a004e0a9000640262004f
:10491c00e00f52000e0032000002eb00040f780092
:10492c00ee0290002e0a9000450a98004e0290006c
:10493c00de0290002e0b9000048bbe004e02900005
:10494c00de0290002e0b9000240398003503980093
:10495c001e027800e00f520011003a004e0a90003f
:10496c0064026200e00f52000d0032000002eb0006
:10497c00340798006602470013c0b3000041eb00f7
:10498c00840078002e0890001d04070000027800b7
:10499c00040f78004e0a90000440a000440f9800c9
:1049ac001e027800e00f52002f003a004e0a9000d1
:1049bc006102620004427800e04f520005003200b0
:1049cc00ae0a9000151a90000410a000941a9800da
:1049dc0004003700ae0a9000151a90000410a100d4
:1049ec00941a98004e0a900062026200e00f520086
:1049fc0005003200ae0a9000151a90000400a000c9
:104a0c00941a980004003700ae0a9000151a900012
:104a1c000400a100941a98004e0a900070026200e3
:104a2c00e00f520010003200210020006011b8008d
:104a3c002e089000991107000002780024079800b6
:104a4c002e029000e00f520003003200c40120003f
:104a5c00040f780004003700ce0a9000f4fe2f00fb
:104a6c0004826200440f98001e027800e00f52008e
:104a7c00060032006e0290009e027800854278009b
:104a8c00057298000082eb00010037000002eb0079
:104a9c00040078000080fa00000006000e00fa0006
:104aac0050079800610798006e0290001402be0037
:104abc0024079800350798000002eb004407980083
:104acc002e029000be029000e00f5200e08f5a00c0
:104adc0012003a005e02900024039000c64b900036
:104aec008783fb00564890000080fb004800dd00e7
:104afc008083730007027800e64b90008783fb00ed
:104b0c00764b90000683fb004833dd000683730070
:104b1c008602780024079800350798006e029000f2
:104b2c00740a9000e8034700640347008e82e80093
:104b3c008701780006017800850078005e009000ff
:104b4c000907070000027800040f78001e027800a5
:104b5c00e00f520002003a000042eb000b0037005d
:104b6c001e027800240a9000e00f520006003a0062
:104b7c001e027800540a9000e00f520002003a0026
:104b8c000042eb000100370014c0b3000440780071
:104b9c000080fa00000006000600fa0020079800ca
:104bac002e029000240a900005002000048fbe0005
:104bbc001e02be00c022dd0004002000048fbe00d7
:104bcc002e029000540a9000050020001e1f720057
:104bdc001e9772001e02be000400be000080fa0088
:104bec00000006000a00fa00200798003107980020
:104bfc00024f98003e0090003af007000002780047
:104c0c00040f78001e027800e00f520002003a00f8
:104c1c000002eb008400370062002000c1d42000a9
:104c2c002e00900009f007001e027800e10f5200e0
:104c3c0002003a003e0290007b0037003e029000da
:104c4c000402e80094427800a4c3b30084cf52005d
:104c5c006b003a003e029000144278000440780049
:104c6c0027f7070000027800ae029000a40298001b
:104c7c002e02900024029000e00f520002003a0035
:104c8c000002eb00680037002e0290002403900015
:104c9c00c64b90008783fb00564890000080fb00b9
:104cac004800dd008083730007027800e64b90001b
:104cbc008783fb00764b90000683fb004833dd00b6
:104ccc0006837300860278002e039000048bbe00ce
:104cdc003e0290000482e800340798001e8fe90021
:104cec001e027800e00f520002003a003e029000d3
:104cfc004d0037003e02900094427800f4c2b3009d
:104d0c0084cf52003e003a003e0290000402e800bc
:104d1c00340798001e0fe9001e027800e00f5200c5
:104d2c0037003a003e0290003f003700be02900070
:104d3c001e0290000482420094427800f4c2b30038
:104d4c0084cf520007003a001e0290000402e800d3
:104d5c00be0290000482420014427800e04f5200e0
:104d6c002f0032001e029000e00f52001b00320098
:104d7c00be0090002e0090004e000700000278004c
:104d8c00e00f5200150032000e4a9000e04f520026
:104d9c0010003200be0090002e009000af00070003
:104dac0000027800e00f5200020032000002eb001b
:104dbc001d003700be0090002e0090003d00070043
:104dcc0000027800e00f5200040032000002eb00f9
:104ddc00150037000002eb00130037001e02900094
:104dec000402e80014079800be0290001e02900016
:104dfc0004824200340798001e0290001e0f12001d
:104e0c003e0090000b000700000278001407980089
:104e1c001e029000e10f4200c4ff3a00010037006f
:104e2c00000000003e029000040078000080fa00b0
:104e3c00000006000600fa00200798000002eb00b4
:104e4c00040f7800010037001e0fe8002e029000be
:104e5c0094427800254798002e4290000482fb0073
:104e6c000402ea004f22de0004427800ae029000f9
:104e7c008502e80025079800e04f5200040032003c
:104e8c00ae429000f4c2b30084cf5200eeff3a0061
:104e9c002e429000e04f520002003a000082eb00dc
:104eac00010037001e027800040078000080fa0030
:104ebc00000006004600fa001027980021279800f1
:104ecc006e0f47008040eb002e209000f2fc070094
:104edc0000427800244798002e429000e04f520088
:104eec0006003a001e2290002402900035c1b30047
:104efc00057298000082eb00550037002e4290009e
:104f0c00e14f52001c003a001e2290001402be0019
:104f1c0044079800550798000002eb0064079800be
:104f2c009e0078002e2090009dfd07007502200049
:104f3c001e824200040078006c024700e800470023
:104f4c0027002000f60320008002eb00810178008e
:104f5c00000178009e0078001e209000de01070002
:104f6c0000027800340798003e029000e00f5200d7
:104f7c002f003200350037002e429000e34f5200d4
:104f8c0025003a002e2290000402e800944278009a
:104f9c00e4c2b30084cf5200020032000002eb00e6
:104fac002b0037001e2290001402be00440798000c
:104fbc00550798000002eb0064079800ec034700cb
:104fcc0068034700e60247001400200087017800c0
:104fdc0006017800850078001e209000e20507008d
:104fec0000027800240798003e029000e00f520067
:104ffc0007003a002e009000e7fe07000002be00fa
:10500c001e239000048bbe000002eb001000370042
:10501c000082eb000e0037001e229000240290004c
:10502c0035c1b300057298000082eb000800370010
:10503c001e027800d4029000440290001e239000bf
:10504c00048bbe000002eb00010037000082eb0075
:10505c00040078000080fa00000006005600fa00f8
:10506c00102f9800212f98007002470024079800f9
:10507c000002eb00542798000002eb00042f98006c
:10508c001e2a90001402be00040f9800150f980001
:10509c000e0a90009e0a9000e00f5200e08f5a001a
:1050ac0012003a001e2a900024039000c64b900078
:1050bc008783fb00564890000080fb004800dd0011
:1050cc008083730007027800e64b90008783fb0017
:1050dc00764b90000683fb004833dd00068373009b
:1050ec0086027800040f9800150f98001e2a900075
:1050fc0024029000441798008040eb002e2890006a
:10510c0065fc070000427800644798006e429000ee
:10511c00e04f5200030032006e429000e34f520009
:10512c0006003a001e2a90002402900035c1b300fc
:10513c00057298000082eb00920037006e429000de
:10514c00e14f52000e003a00ae0090002e28900065
:10515c0013fd0700a40420000e02420013c0b3008c
:10516c0002c1b300840078002e00900024020700d6
:10517c0000027800e00f520007003a0008003700e8
:10518c001e2a90002402900035c1b30005729800cd
:10519c000082eb007b0037000082eb0079003700c7
:1051ac000e0890009e0890004e12900004037800a8
:1051bc00c64b90008783fb00564990000281fb0090
:1051cc004811dd008283730007027800e64b9000e3
:1051dc008783fb00764b90000683fb004833dd0091
:1051ec000683730086027800840f5000858f580068
:1051fc0003003a006022b800048fbe0003003700a1
:10520c000e0a90009e0a9000048fbe000e0a9000b9
:10521c009e0a9000240f9800350f98000e0a9000fb
:10522c009e0a90001e2b9000048bbe000e0a90006c
:10523c009e0a900064279800752798005e229000c3
:10524c00070520008e834300c60420000e03430094
:10525c00ee0247008701780006017800850078008f
:10526c001e289000400507000002780044079800b3
:10527c004e029000e00f520007003a001e2a9000e8
:10528c0024029000fe02900085427800057298007e
:10529c000082eb003b0037004e029000544a900015
:1052ac0004cf98004e0290007402900034279800ae
:1052bc004e029000040a9000242798004e009000a3
:1052cc0035fe07000002be005407980065079800e1
:1052dc004e0a9000de0a90001e2b9000048bbe003c
:1052ec004e0a9000de0a90006427980075279800fb
:1052fc000002eb00042f98000002eb0054279800ea
:10530c005e229000070520008e834300c604200017
:10531c000e034300ee024700870178000601780077
:10532c00850078001e2890000f0507000002780009
:10533c00440798000e0a90009e0a90001e2b9000c5
:10534c00048bbe001e2a900024039000440420000d
:10535c000e024200840078001e02be005e01900026
:10536c00ee019000060078000900070000027800aa
:10537c00e00f5200020032000002eb000100370087
:10538c000082eb00040078000080fa0000000600a8
:10539c001200fa0030079800420798005307980053
:1053ac006407980075079800010f98003e03900061
:1053bc00865b90008783fb00165890000080fb00f2
:1053cc004800dd008083730007027800a65b900024
:1053dc008783fb00365b90000683fb004833dd00bf
:1053ec000683730086027800840278003e029000e7
:1053fc00046390000683fb00146290000482fb009f
:10540c004822dd0004027300050178008000eb00e7
:10541c000400780014ee07003e02900084629000b5
:10542c008582fb00146290000482fb004822dd00a0
:10543c0004827200040f78003e0290008462900097
:10544c008582fb00146290000482fb004822dd0080
:10545c0004827200b20020000102200004007800d7
:10546c0001ee07001e027800e5c2b300054a780081
:10547c001e02780005c1b300354a98001e02780060
:10548c008042eb00454a9800ce0290001e02780044
:10549c00550a98004e039000de0390000400200093
:1054ac00f5ff2000060078000703780084037800dd
:1054bc00050278000700600004026300050020006c
:1054cc00c022dd00040020000403be006102b8000d
:1054dc000403730085837300403ade00050020004e
:1054ec00840278001e027800250a98001e037800ba
:1054fc006022b800640b9800750b98000e0a90009f
:10550c00c44290001e027800554a98000e0a900082
:10551c00940290001e027800750298000e0a90000a
:10552c00940290001e027800050a98001e02780072
:10553c008002eb00150a98001e0278008002eb0036
:10554c00350a98001e0278008002eb00450a98008c
:10555c003e029000846290008582fb0014629000f1
:10556c000482fb004822dd00048272008402780071
:10557c003e029000046390000683fb0014629000ce
:10558c000482fb004822dd00040273000402b00018
:10559c00020220008500780004007800abed0700c3
:1055ac003e029000846290008582fb0014629000a1
:1055bc000482fb004822dd000482720005022000f8
:1055cc00050f42001e027800e5c2b3001542980098
:1055dc00ee0290001e027800550a98006e039000af
:1055ec00fe03900004002000f5ff20000600780068
:1055fc000703780084037800050278000700600038
:10560c000402630005002000c022dd00040020001d
:10561c000403be006102b8000403730085837300a9
:10562c00403ade0005002000840278001e0278005b
:10563c00250a98004e019000de0190003e0090007b
:10564c00a20607000002be00140798002507980068
:10565c003e029000c46290008582fb005462900070
:10566c000482fb004822dd00048272008402780070
:10567c00450290000400a000c40298003e02900075
:10568c00c46290008582fb00546290000482fb008f
:10569c004822dd00048272001e039000ae039000cd
:1056ac00068abe008000eb003e0090007b050700e0
:1056bc00004278000404a200e04f520002003200c5
:1056cc000002eb00010037001400200004007800f9
:1056dc000080fa00000006001400fa002007980071
:1056ec003107980042079800530798006407980008
:1056fc0075079800060f9800170f98000002eb0032
:10570c00140798005e0290001402be00e00f5200d5
:10571c00e08f5a0016003a002e02900024039000ed
:10572c00c64b90008783fb00564890000080fb001e
:10573c004800dd008083730007027800e64b900080
:10574c008783fb00764b90000683fb004833dd001b
:10575c0006837300860278005e039000048bbe0003
:10576c0003003700000000000100370000000000bb
:10577c008e82e8007e029000ee0190005e019000a7
:10578c00850078002e009000f703070000027800d7
:10579c00040f78001e029000ef0f52001d00320023
:1057ac001e029000fd0f520006003a002e029000df
:1057bc0024029000d5c1b300057298001e0290001f
:1057cc008c0037007e0290000402e80074079800f9
:1057dc001e027800344a9000ef4f5200080032004d
:1057ec001e027800344a9000e84f52000400320048
:1057fc001e02780014427800fb4f420006003a006b
:10580c001e02780014427800e04f5200d8ff3a0094
:10581c0001003700000000001e029000ef0f520044
:10582c00040032001e02780014427800e04f52004f
:10583c0002003a00f40020006e0037001e0a9000af
:10584c0068026200e00f52000a0032001e0278006b
:10585c00344a90008482fb000e0a9000848262001d
:10586c001e027800344a90000482fb00848f5200a0
:10587c00bcff3a001e0a9000844278001e02780099
:10588c0005417800840078004e009000b5050700b3
:10589c0000427800e04f5200b4ff32009e027800c4
:1058ac003e0290007402b000b20020008500780027
:1058bc0004007800e5ec07002e029000a402900092
:1058cc003e029000450a98001e007800b2fc0700ca
:1058dc000002be003e03900044039800550398005c
:1058ec003e029000d4029000440290003e039000cf
:1058fc0064039800750398003e0290008002eb0050
:10590c00550a98003e0290008002eb00650a980050
:10591c003e0390006022b800240b9800350b9800d1
:10592c001e027800f40a9000640a90003e03900076
:10593c00040b9800150b98001e027800344a900056
:10594c008482fb003e029000051298003e029000fb
:10595c000412900070026200e00f52000d00320041
:10596c001e027800d44a90003e02900065629800b6
:10597c001e027800f40290003e029000151298006e
:10598c001e027800840a90003e02900025129800b6
:10599c00080037001e027800b40a90003e02900006
:1059ac00151298001e027800c40a90003e02900066
:1059bc00251298007e0290000402e90074079800fa
:1059cc003e029000fe029000750a98002e02900094
:1059dc001402be003e039000048bbe002e02900009
:1059ec001402be003e039000240398003503980077
:1059fc000002eb00040078000080fa0000000600b2
:105a0c000c00fa003007980041079800224f9800cc
:105a1c00334f98000002eb00040f78004e02900008
:105a2c008002eb00050a7800ce0090003e0090004a
:105a3c006701070000027800e00f52001d003a00d9
:105a4c003e4a9000e04f52000b0032003e009000a6
:105a5c00230007000002be001407980025079800d9
:105a6c003e029000440a9000047290000482fb00f5
:105a7c00040f7800030037006022b8001407980068
:105a8c00250798001e027800e00f52000b003a0028
:105a9c001e029000ae0290002e499000ce009000a5
:105aac003e0090008200070000027800040f78008e
:105abc000200370064012000040f78003e029000c1
:105acc00440a90009e027800854278000572980086
:105adc001e027800040078000080fa000000060026
:105aec000a00fa00400798000002eb00040f78004f
:105afc004e029000440a9000140798004e02900049
:105b0c00440a9000220020000300200004007800ca
:105b1c00010207000002be00240798003507980018
:105b2c002e029000be029000e00f5200e08f5a004f
:105b3c0003003a0074012000040f78004000370085
:105b4c001e029000646a9000e14f520010003a006f
:105b5c008040eb0084ff2000050020002e01900007
:105b6c00be0190001e009000aa0907000003be00b1
:105b7c00f4ff2f0005002000840f5300858f5b007d
:105b8c0026003a0094002000040f78002300370010
:105b9c001e029000646a9000e24f520010003a001e
:105bac008040eb0084ff2f00050020002e019000a8
:105bbc00be0190001e009000960907000003be0075
:105bcc00f4ff2f0005002000840f5300858f5b002d
:105bdc0012003a0094002000040f78000f003700e8
:105bec008040eb0084ff2f00f5ff20002e01900079
:105bfc00be0190001e009000860907000003be0045
:105c0c00f4ff2f00f5ff2000840f5300858f5b00fd
:105c1c0002003a0094002000040f78001e02780065
:105c2c00e00f520006003a002e019000be019000d9
:105c3c001e0090003a02070000027800040f780062
:105c4c00110020001e009000140407000042780090
:105c5c000404a200e04f5200020032009400200025
:105c6c00040f78004e0290002e039000be039000ab
:105c7c0046029800570298004e0290002e039000a6
:105c8c00be03900066029800770298001e0278000e
:105c9c00844278001e029000057298002e0290003b
:105cac00be0290000400be000080fa000000060056
:105cbc002000fa00300f9800410f9800225f9800e6
:105ccc00640f9800750f98000002eb001407980001
:105cdc000002eb00740798003e0a90001402be000c
:105cec0024079800350798003e0a9000440a90005b
:105cfc00440798003e0a90001402be005407980016
:105d0c00650798004e0a9000140278006e00470058
:105d1c00ea0347000e83e800e402470080017800a4
:105d2c000701780086007800050078008e020700d5
:105d3c0000027800040f78001e027800e00f520079
:105d4c0006003a003e0a9000440a9000d5c1b30008
:105d5c0005729800d40120009a0037003e0a90008a
:105d6c0075022000848242001e027800b2002000de
:105d7c008500780004007800e1eb07001e02780033
:105d8c00ae5a9000354a98001e0278008042eb0013
:105d9c00454a9800ee0a90001e027800550a9800b9
:105dac006e0b9000fe0b900004002000f5ff20000d
:105dbc000600780007037800840378000502780059
:105dcc00070060000402630005002000c022dd0013
:105ddc00040020000403be006102b8000403730039
:105dec0085837300403ade000500200084027800b1
:105dfc001e027800250a98001e0378006022b80065
:105e0c00640b9800750b9800f4698000e00f520049
:105e1c0005003200f569800070024700040078002c
:105e2c0005000100050037007002470062002000e9
:105e3c008000eb00040078008beb0700ce52900042
:105e4c001e027800554a98009e0a90001e027800a7
:105e5c00750298008e0a90001e027800050a9800c0
:105e6c009e0a90001e027800350a98008e0a900057
:105e7c001e027800450a98003e0a90006e0b9000b6
:105e8c00fe0b900046029800570298003e0a9000c4
:105e9c006e0b9000fe0b9000660298007702980043
:105eac003e0a90008002eb00550a98003e0a9000d2
:105ebc008002eb00650a98003e0b90006022b8004f
:105ecc00240b9800350b98001e027800f40a900001
:105edc00640a90003e0b9000040b9800150b980080
:105eec001e027800344a90008482fb003e0a900027
:105efc00051298003e0a9000041290007002620095
:105f0c00e00f52000d0032001e027800d44a9000bf
:105f1c003e0a9000656298001e027800f402900020
:105f2c003e0a9000151298001e027800840a900018
:105f3c003e0a900025129800080037001e027800d7
:105f4c00b40a90003e0a9000151298001e027800c8
:105f5c00c40a90003e0a9000251298004e0a900048
:105f6c00940278003e0a9000750a98002e02900068
:105f7c00be0290003e0b9000048bbe002e029000df
:105f8c00be0290003e0b900024039800350398004d
:105f9c003e0a9000440a9000c46290008582fb0087
:105fac00546290000482fb004822dd0004827200df
:105fbc0084027800450290000400a000c4029800fe
:105fcc001e029000040078000080fa000000060019
:105fdc002200fa00700f9800011798000002eb00e5
:105fec00040f98007e0a90001402be00440f980023
:105ffc00550f98000002eb00640f98000002eb00b4
:10600c00340798007e0a9000440a9000340f9800e0
:10601c007e0a90001402be00140f9800250f980001
:10602c0014c0b300044f98000e1290009402780034
:10603c0025079800620037000042eb00044f7800ff
:10604c002e029000140798004e0a9000de0a900071
:10605c0054079800650798007c004700f803470038
:10606c0070034700f20247002e0290008001780076
:10607c00070178008600780005007800ba01070057
:10608c0000027800740798002e0290000402e800c9
:10609c00240798007e029000e00f52000d003200a1
:1060ac007e02900014427800fb4f42000400320044
:1060bc007e02900014427800e04f520005003a0036
:1060cc001e4fe8000e4a90009e42780084cf52008a
:1060dc00ddff39007e029000e00f520032003a00e2
