:020000040000fa
:08000000c080040000000000b4
:020000040000fa
:1000080004800000088000000c80000010800000c0
:1000180014800000bc800000bc800000bc80000090
:10002800188000001c800000208000002480000050
:10003800bc800000288000002c8000003080000078
:1000480034800000388000003c80000040800000c0
:100058004480000048800000bc800000bc80000094
:100068004c80000050800000548000005880000040
:100078005c800000bc800000bc800000bc800000e8
:10008800bc80000060800000648000006880000080
:100098006c80000070800000748000007880000090
:1000a8007c80000080800000bc800000bc800000d4
:1000b800bc80000084800000888000008c800000e4
:1000c800bc80000090800000bc800000bc80000064
:1000d800bc80000094800000bc800000bc80000050
:1000e800bc800000988000009c800000bc8000005c
:1000f800bc800000bc800000bc800000bc80000008
:10010800bc800000bc800000bc800000bc800000f7
:10011800bc800000bc800000a0800000bc80000003
:10012800bc800000a4800000a8800000ac80000013
:10013800bc800000bc800000bc800000bc800000c7
:10014800b0800000bc800000bc800000bc800000c3
:10015800bc800000b4800000bc800000bc800000af
:10016800bc800000bc800000bc800000bc80000097
:10017800bc800000bc800000b8800000bc8000008b
:10018800bc800000bc800000bc800000bc80000077
:10019800bc800000bc800000bc800000bc80000067
:1001a800bc800000bc800000bc800000bc80000057
:1001b800bc800000bc800000bc800000bc80000047
:1001c800bc800000bc800000bc800000bc80000037
:1001d800bc800000bc800000bc800000bc80000027
:1001e800bc800000bc800000bc800000bc80000017
:0801f800bc800000bc80000087
:020000040000fa
:020000040001f9
:10000000c0800400000000005a81040000000000cd
:100010005a810400000000005a8104000000000022
:100020005a810400000000005a8104000000000012
:100030005a810400000000005a8104000000000002
:100040005a810400000000005a81040000000000f2
:100050005a810400000000005a81040000000000e2
:100060005a810400000000005a81040000000000d2
:100070005a810400000000005a81040000000000c2
:10008000a28e0400000000005a810400000000005d
:100090005a810400000000005a81040000000000a2
:1000a0005a810400000000005a8104000000000092
:1000b0005a810400000000005a8104000000000082
:1000c0005a810400000000005a8104000000000072
:1000d0005a810400000000005a8104000000000062
:1000e0005a810400000000005a8104000000000052
:1000f0005a810400000000005a8104000000000042
:100100005a810400000000005a8104000000000031
:100110005a810400000000005a8104000000000021
:100120005a810400000000005a8104000000000011
:100130005a810400000000005a8104000000000001
:100140005a810400000000005a81040000000000f1
:100150005a810400000000005a81040000000000e1
:100160005a810400000000005a81040000000000d1
:100170005a810400000000005a81040000000000c1
:020000040000fa
:020000040001f9
:10018000af8f20000e7f22000e01880000000000cb
:10019000000020000000e00002003200000120000a
:1001a000200288000c00070060d728000100200012
:1001b00011000700000020000000e00002003200f3
:1001c0000000020000000000bc8e020000000000e1
:1001d0000040da000000fe004440a900e0002000da
:1001e0000000e0000300320010002000a0018800a1
:1001f0004440a800000006009101880080007800bb
:100200000000eb0015003700e280400032a0b4008f
:100210009101ba00e280400032a0b4009102ba001d
:10022000e280400032a0b4000002eb00472bde0069
:10023000f507b200602ce10004003a000059eb0021
:100240008301e900fdff3e00040037006128e10062
:10025000010032000082eb00040007001101ba0027
:100260000200e000e8ff3a00000006003159ba0041
:100270008301e9000c0032002159ba008301e90032
:10028000080032000400e00003003a00e280400071
:1002900032a0b400f5ff370011d9ba008301e9009c
:1002a000faff3a008100e800e180400032a0b4008b
:1002b000000006000040da000000fe000a00fa001c
:1002c000e20f500022003e00c4478000e10f5200c0
:1002d000060032008723200046232000242320002c
:1002e00005232000e08f530004003a0087222000fd
:1002f00046222000242220000522200000002800a1
:100300001500600003003a00800b78000700280009
:10031000958a7300054020009482620001003a0033
:1003200014a0a00082027800060037009403780031
:100330000710b200fdff3200b103fb00070b78008d
:100340008502e900e08f5200f8ff3a00080037000c
:1003500034002000c0bf9f00e2bf9f00b4bf9f00d9
:10036000d1bf9f006a805700620407006fb99700f1
:10037000020078000080fa00000006000000fa0089
:1003800021e2a9009560a9009580a9008560a900d7
:100390008580a9000080fa00000006000200fa0033
:1003a000000f78008560a9008580a9001e027800f2
:1003b000044278006742620067426200674262005e
:1003c0000482fb00670262004c22dd0046058000cb
:1003d000f5ff2800850263000502720044058800cd
:1003e000040720001e0262004422de00044278005e
:1003f000674262000482fb006702620056058000cb
:1004000085ff2f00850263000502720054058800f5
:100410009e027800688262004322de000442780077
:10042000614262000482fb00610262004b22dd0037
:10043000a6048000f57f2f0085026300050272008c
:10044000a4048800040820001e0262004722de0087
:1004500004427800614262000482fb006102620093
:100460004c22dd00a6048000f5ff2e00850263000b
:1004700005027200a40488000080fa000000060053
:100480000800fa001007980021079800320798002a
:100490003e029000441188001e0290000411880062
:1004a0002e029000141188000200370034118000e1
:1004b000044f78001411800061026200e00f5200c6
:1004c000faff3a008560a9000080fa0000000600eb
:1004d000808d20000000fa0068815700cfb8970097
:1004e000020007000080fa0000000600ef03b000e1
:1004f000889fbe008a9fbe008c9fbe008006780049
:100500008e1f78000007eb00d1af9f00a2b79f00bd
:1005100066033700dfa8970054c2b3008100e800eb
:10052000d1af9f00844f500006003a0001027800ce
:100530000006eb0001c3b30000c2b300b7c2b300b2
:100540000e0037003d0290000404b20004003200a7
:100550001d027800004a7800840ee800050037008c
:100560000000fb008d0078005c030700e10f4000f5
:100570004e0332000e07e8004c0337008402780077
:10058000d2c2b30034437800824f530009003200d6
:1005900005003c00804f530008003200874f530095
:1005a0000c003a0007003700814f530009003a0061
:1005b000060037000c30a000f0ff37000c00a00050
:1005c000eeff37000c10a000ecff37000c20a0005d
:1005d000eaff370062026600010032000c00a10051
:1005e00068026600010032000c20a1000602fb0038
:1005f0000403b100e90f52000c003e00050378002f
:100600000002eb00b603fb006a22b9000703b10049
:1006100086027800048243009603fb000703b100c2
:10062000e98f5300f7ff3600080037000002eb00a7
:10063000a7c2b300874f530004003a00afb1970040
:100640008502e80043027800a3b79f000003eb0097
:1006500096b79f00e6c2b300954f13000c003a0016
:100660000ce0a00064435300d54f13000300320098
:10067000050378000000eb0009003700afb39700d6
:100680008502e80047047800a7b79f0098b79f004d
:1006900005037800090037006a00b90000804300b4
:1006a00086027800b603fb000703b100e98f530010
:1006b000f9ff360090b79f00f5ff3700b64278008b
:1006c000cac6b300d6af9f008acf520025003200c1
:1006d0000f003c0036c6b30086cf52009e003200a9
:1006e00004003c00e0cf5200f50232006b4353009f
:1006f0000f00370046c6b30086cf52001700320005
:100700006543430086cf5200b2003a001300370021
:1007100036c7b30086cf52001f00320007003c00ee
:100720006443530086cf5200140032000643e800b1
:1007300086cf5200a7003a001300370056c7b30017
:1007400086cf5200aa0032006343430086cf520096
:10075000a0003a00e5779f000d003700e5779f0085
:10076000a5003700f00366000501200001003200fb
:10077000050028000c867200d0ff3700e5779f0047
:100780000c60a0009c003700e5779f000c50a00093
:100790000c70a00098003700afb59700e5779f0078
:1007a000cb027800abb79f00b5b79f00e08f520037
:1007b00002003a00418c2000b1b79f003fb3970080
:1007c0008002eb00010037008502e800e6c37a00f2
:1007d000e0cf5300fcff3a00c5b79f001fb1970060
:1007e000e00f510005003200cfb19700830f510098
:1007f0000200310082027800c5b79f00cfb2970097
:100800000004eb00850f5200010036000504520081
:100810006806660009c2b3000f00320029003700e5
:100820003d0290000404b200040032001d02780072
:10083000094a7800840ee800050037008d00780032
:1008400000022000a5020700e10f40000100320075
:100850000e07e8000804e900e00f5400f0ff3a003a
:100860000084eb0017003700bd0290000504b200c1
:1008700009003200880278009d0378003543780033
:10088000864b780005047800870ee800e04f53009f
:100890000a003a0011003700880278008d007800c5
:1008a0003500fb0084bf9f00050478008b02070021
:1008b0000fba9700e10f4000080032000e07e80071
:1008c000060037000c027800080678003fb4970055
:1008d000cfb497005fb59700efb597008902780015
:1008e0008504e900e08f5200dfff3a00b8b79f00af
:1008f000c9b79f00dab79f00ebb79f000c047800e0
:1009000009c2b30004067800e00f56000f003a0059
:10091000660237003d0290000404b2000400320079
:100920001d027800094a7800840ee80005003700af
:100930008d0078000002200068020700e10f4000ef
:10094000010032000e07e8000804e900e00f54003f
:10095000f0ff3a0055023700afb097007003660011
:1009600041047800a1b79f00cfc4de0009057800dc
:100970008a0578000800be000a01be004800de00bb
:10098000c80add0000807200e0779f00e00f53008e
:1009900009003200e04f500007003200e14f4000f4
:1009a0000500320026002000f0779f00887f9f001e
:1009b000c6b79f000300370017002000c7b79f008d
:1009c000f8779f0078fb2f0008844700b8b79f0096
:1009d00082ff370069fb2f001a002000898447003e
:1009e000e5779f00b9b79f00cab79f007bff37002c
:1009f000e5779f000c0cb3008c027800050cb20068
:100a00003b003a00e00f560005003d00afb29700f2
:100a10004501be004500be00a5b79f000f0037008e
:100a2000f0026600120032002fb497004803be00a7
:100a3000f69f9f0087a79f00a8b79f00980290008d
:100a4000cfaade0095a79f00a5a79f007f989700db
:100a50008fa097001fa19700afa19700b0b79f008c
:100a6000c1b79f00d2b79f00e3b79f000b003700cc
:100a7000afb09700c102780005047800cfc4de0053
:100a8000090578008a057800a1b79f00b8b79f00d4
:100a9000c9b79f00dab79f00ebb79f003fb0970040
:100aa000cfb097005fb19700efb19700e00f500013
:100ab000e08f5800e00f5900e08f590032003d00f0
:100ac0006000b8006011b8003fb49700cfb4970041
:100ad0005fb59700efb597003c00b30008045000e5
:100ae000898458000a0559008b8559002200370077
:100af000e00f560005003d00afb297004501be0073
:100b00004500be00a5b79f000f003700f002660049
:100b1000120032002fb497008004eb004803be009f
:100b20000005eb0096af9f00a7af9f00b9af9f00f5
:100b3000caaf9f001fa89700afa897003fa99700d2
:100b4000cfa99700a8b79f00b0b79f00c1b79f007b
:100b5000d2b79f00e3b79f000b003700afb09700fc
:100b6000c1027800a1b79f000504780009002000a9
:100b70000a0020000b002000b8b79f00c9b79f00f3
:100b8000dab79f00ebb79f009fb49700e08f540047
:100b90000d003a001a0020003fb09700cfb0970038
:100ba0005fb19700efb197009ab79f00e00f500038
:100bb000e08f5800e00f5900e08f5900020032002a
:100bc0008000eb0091b79f000c0178000504200025
:100bd000020cb20082b79f00850f51003400320032
:100be00003003c00e00f51000800320048003700cd
:100bf000050820008fb19700858f51001400320046
:100c0000050c2000858f510041003a00a68020008d
:100c100015c0b3003600be003601be003fb49700d9
:100c2000cfb497005fb59700efb597000040e100a3
:100c300001c8e10002d0e10003d8e100330039002f
:100c40008542e800f4cf5200f2ff3a002f0037004f
:100c500015c0b30000012000010020006011b800a1
:100c60003fb49700cfb497005fb59700efb59700fa
:100c70000040e10001c8e10002d0e10003d8e1003a
:100c800022003900490020000000d0008180d200fd
:100c90000281d2008381d2008904e900faff3a0080
:100ca0008542e800f0cf5200edff3a001700370010
:100cb00015c0b30080002000010020006011b800c2
:100cc0003fb49700cfb497005fb59700efb597009a
:100cd0000040e10001c8e10002d0e10003d8e100da
:100ce0000a003900390020000000d0008180d200c5
:100cf0000281d2008381d2008904e900faff3a0020
:100d00008542e800f5cf5200edff3a00e5779f00fd
:100d10006f7597009fb597008a02fb008b8f52007a
:100d200002003d00eb779f00040037001fb09700e2
:100d3000850f500001003d0095b79f00e00f520065
:100d400003003200e3026600010032000402e90001
:100d50000500240085026600060032009fb097005f
:100d6000810f5200020034000102520001003700de
:100d70000002eb006f7197008001eb008202fb0024
:100d8000f3af9f00850f520002003400850252002d
:100d9000f5af9f00640266003b003200e20266008d
:100da00061026600e08f520011003200bd02900027
:100db0000504b200080032009d027800b6c2b300fc
:100dc000e00f52000100320006c3e800864a7800b6
:100dd000850ee80015003700b0022000e00f520039
:100de000010032000080e8008d0078000c00370020
:100df000e00f52000e0032003d0290000404b200e9
:100e0000050032001d02780005c2b300054a7800d3
:100e1000840ee800050037008d00780000022000f5
:100e20002e010700e10f4000010032000e07e8002c
:100e30007faa9700e00f52004f00320008c3b300b2
:100e4000840478003d0290000404b20004003200e3
:100e50001d027800084a7800840ee800050037007b
:100e60008d007800000320001c010700e10f400006
:100e7000010032000e07e8008904e900f1ff3a00a2
:100e8000f9af9f003c003700ffaa9700e08f5200a7
:100e9000140032006802660012003a0008c2b30073
:100ea000850478003d0290000404b2000400320082
:100eb0001d027800084a7800840ee800050037001b
:100ec0008d0078000002200004010700e10f4000bf
:100ed000010032000e07e8008904e900f1ff3a0042
:100ee000f9af9f00e202660061026600e08f5200e7
:100ef00011003200bd0290000504b200080032006b
:100f00009d027800b6c2b300e00f5200010032002b
:100f100006c3e800864a7800850ee8001500370011
:100f2000b0022000e00f5200010032000080e80013
:100f30008d0078000c003700e00f52000e003200e8
:100f40003d0290000404b200050032001d0278004a
:100f500005c2b300054a7800840ee800050037009a
:100f60008d00780000022000dc000700e10f400047
:100f7000010032000e07e8001fb397002580200013
:100f80000602e900f0046600c223dd000c057800cb
:100f9000c7a79f000a02b2006323b900e99f9f0020
:100fa000060478004322dd00b8a79f0085024200b6
:100fb000da9f9f00e5af9f00a30037009fb5970021
:100fc0000fb097008b05e900010420009bb79f003c
:100fd000810f50007300320003003c00e00f50000e
:100fe000080032007e003700040820000fb197008f
:100ff000840f510056003200040c2000840f510071
:1010000077003a00e00f56001f003d00efa997005f
:101010003304be002305be003fb09700cfb0970059
:101020005fb19700efb197000802be000a03be004f
:10103000f30107000802be000a03be00e0779f002c
:101040000000fb00cf80de00010178008201780003
:10105000540207003fb29700cfb297005fb39700ea
:10106000efb397000002520081825a0002035b0036
:1010700083835b00b4b79f00c5b79f00d6b79f00be
:10108000e7b79f002e003700ef9a9700e08f5200dd
:10109000220032006fab97003fb29700cfb29700ab
:1010a0003604be002605be000400be000801be00d6
:1010b00084bf9f00f5b79f000005eb000f010700fc
:1010c0000801be00e0779f000000fb00cf80de003b
:1010d0001a0107000fba9700ffb297008aaf9f006e
:1010e0000004520081845a00d8a79f00e9a79f00fe
:1010f0008004eb00f9a79f005fa09700efa0970086
:101100007fa197008fa99700b0b79f00c1b79f003c
:10111000d2b79f00e3b79f0009003700efa8970000
:101120003fb1970011027800110009000481d80036
:10113000a4002000110009000480d800e1779f007e
:10114000ef7197000343b000e3779f00240037005e
:10115000348b2000df9a9700e08f520001003200ac
:10116000248a20003fb09700cfb097005fb197006e
:10117000efb197004fa397000603e9000500330085
:101180008301d1000281d3008180d3000080d3008d
:10119000f9ff37006f00600064407800e0779f003f
:1011a0000f0037003fb29700cfb297005fb39700b0
:1011b000efb397003fa497000804e900050033004f
:1011c0008703d1000683d3008582d3000482d30035
:1011d000f9ff3700674262000443b000e4779f00e4
:1011e0003d0290000404b200070032009d02780026
:1011f0006f729700844a7800850ee800e04f520035
:1012000007003a0007003700ef7497008d00780060
:101210000900fb0031000700e10f4000010032002f
:101220000e07e8004fa59700bfa597006fa897008d
:1012300064055500e385550068005000caa79f006b
:10124000bba79f00e0af9f009fb09700e08f5000ca
:101250005aff3a0068066600140032007fa9970022
:10126000e00f51001100340008c2b300820478007e
:101270003d0290000404b200040032001d02780018
:10128000084a7800840ee800050037008d007800d9
:101290000002200011000700e10f400001003200b1
:1012a0000e07e8008904e900f1ff3a00dfa9970082
:1012b00013407800e0779f00e04f500095fc3a0023
:1012c0000e0078004f0778004f06be004f05be00a5
:1012d0004f04be00ef03b10000000600889fbe006f
:1012e000010478008084eb0038029000e202620082
:1012f0003b00320004037800980290000620b20000
:1013000002003a00e08f520035003a000490a0003d
:101310008004780034049800f90fb200e08f520086
:1013200002003a00a8029000050c7800ea8f5400f1
:1013300005003a000408b20003003a008800780073
:10134000d0002000e5ff070018029000d8029000ae
:10135000850f52000b0032000402e80015c0b300f4
:101360001404980018027800094a7800040ce80078
:10137000248f2000054a7800ea8f540018003a00b4
:101380000500370009407800880078001700070042
:101390008004780012003700380290000410b20078
:1013a0000f00320018019000a80090004800900043
:1013b000c2fb070018029000840f500004003200a6
:1013c000380290000403b300340498008084eb00da
:1013d0000002eb001404980028029000040c78002e
:1013e000090078004f04be00000006000200fa0069
:1013f000889fbe0001047800a0ff9f003802900083
:10140000840278000504b200020032000000fb00f4
:1014100035003700e202620005003a000403b30021
:1014200015049800340498000080eb002e0037006b
:10143000d8049000e08f540006003a00120020000b
:10144000e6805700480090009cfb070019049800b4
:1014500023003700a8029000e08f520008003a00f5
:10146000658f20000430a00025049800050c78004a
:1014700034049800250020005504980015049800b5
:1014800018019000a8009000480090008bfb070016
:10149000280290008082eb0015049800affa9700b4
:1014a000054a7800040ce8002ffa9700ea4f520032
:1014b0000b003a00380290000410b200080032001d
:1014c00018019000a8009000480090007bfb0700e6
:1014d0000002eb00a802900014049800050c7800ac
:1014e0002ffa97000400fb004f04be000080fa00b2
:1014f0000000060000c0da00000006006022b8000c
:10150000060220000000d0008180d2000482d200b8
:101510008582d2000000a0000202520083825a009d
:10152000030031000202420083824a000000a10051
:101530000603e900f3ff3a0000000600020ab900c2
:10154000001bb9000200b800810042008100430086
:1015500000000600889fbe008a9fbe003004be00c7
:101560002005be000404440085844c0006054d009f
:1015700087854d000898be000a90be000440e10037
:1015800005c8e10006d0e10007d8e1000200310003
:10159000680040001008e8004f05be004f04be0080
:1015a000000006001000fa00889fbe008a9fbe005f
:1015b000110020000605be000404be003002be007b
:1015c0002003be00c4b79f00d5b79f00e6b79f00b9
:1015d000f7b79f000802520089825a000a035b0095
:1015e0008b835b0084bf9f0095bf9f00a6bf9f00b9
:1015f000b7bf9f000498be000698be004fb2970088
:10160000dfb297006fb39700ffb397000820e100a7
:1016100009a8e1000ab0e1000bb8e10001003900bf
:101620008000eb004f05be00108810004f04be0084
:101630000080fa00000006001400fa00889fbe0037
:101640008a9fbe008c9fbe000006eb003e00070094
:10165000ccb79f00bcb79f00acb79f009cb79f0062
:101660008cb79f000605be000404be000d042000d8
:101670004fb39700bfb29700860343002fb2970085
:10168000e00f530004003d003d0007000f00400044
:10169000b0ff070003003700390007000f004000cb
:1016a000c0ff0700cfb2970095bf9f00e08f5200a8
:1016b000090035002b000700140020000500200061
:1016c0006033b80000007200818072000201730074
:1016d000838173001c0007000c06e8008d0f560084
:1016e000e3ff3a001fba9700e00f520005003d00eb
:1016f0000802be000a03be0000fe2f000f004000db
:1017000094ff07004faa9700e00f520008003a002c
:101710000fb497009fb497002fb59700bfb59700ff
:10172000d8b79f00e9b79f00fab79f008bbf9f0013
:101730000c0007004f06be004f05be004f04be0060
:101740000080fa000000060001000700000006000b
:1017500090b79f00a1b79f00b2b79f00c3b79f008b
:101760000000060001000700000006001fb09700ff
:10177000afb097003fb19700cfb1970000000600cf
:101780004f2bde00f9ff070086837300858242003d
:101790004f23de00a7b79f0086827200040242003a
:1017a00095b79f00ffaa97004f2bde00858242006d
:1017b0000602720084b79f006faa97004f23de00d5
:1017c0000402420086827200f5af9f004f18de00cf
:1017d00000027200e5ff0700e4af9f000000400038
:1017e0008180480002014900838149000802be004f
:1017f0000a03be00d6ff070000fe2f00000006000f
:10180000881f780018002000881f78008aff0700d2
:101810008f87e9004f04780000000600801feb006e
:1018200085ff07008f87e90000000600889fbe0043
:101830008a9fbe00e00f5000e08f5800e00f590073
:10184000e08f59000c003d006044b8006055b800be
:101850000000540081805c0002015d0083815d0016
:10186000180020001500070008003d0018000700c0
:101870000004eb00050037000004eb000f00070038
:1018800002003d001200070018002000dcff0700e6
:10189000e00f5400060032006022b8006033b80048
:1018a0000000520081805a0002015b0083815b00ce
:1018b0004f05be004f04be0000000600e00f5200be
:1018c000e08f5a00e00f5b00e08f5b000000060035
:1018d0006044b8006055b8000402540085825c0082
:1018e00006035d0087835d0000000600889fbe0040
:1018f0008a9fbe008c1f7800e00f5000e08f5800d8
:10190000e00f5900e08f59000d003d006044b80021
:101910006055b8001c0020000000540081805c006d
:1019200002015d0083815d000820e10009a8e1005b
:101930000ab0e1000bb8e1000d003d0008003700df
:101940000006eb00e00f5200e08f5a00e00f5b0052
:10195000e08f5b0006003d006044b8006055b800b1
:101960000402540085825c0006035d0087835d00ed
:10197000aaff0700e00f5600060032006022b80000
:101980006033b8000000520081805a0002015b0001
:1019900083815b004f0678004f05be004f04be00f8
:1019a00000000600889fbe008a9fbe008c1f780042
:1019b0000006eb00e00f5000e08f5800e00f5900e8
:1019c000e08f590007003d006044b8006055b80042
:1019d0001c0020000000540081805c0002015d00ba
:1019e00083815d00e00f5200e08f5a00e00f5b0042
:1019f000e08f5b0007003d006044b8006055b80010
:101a00000c00a2000402540085825c0006035d0005
:101a100087835d000c000700e00f560006003200cf
:101a20006022b8006033b8000000520081805a0084
:101a300002015b0083815b004f0678004f05be000a
:101a40004f04be0000000600889fbe008a9fbe00b3
:101a50008c9fbe000404b8000506b8008904460047
:101a600060854e000606b8000a054600e0854e0077
:101a70000706b8008b054600040eb800890446002e
:101a80000a854e00e0854d00050eb8000a054600a7
:101a90008b854e00060eb8008b0546000416b80074
:101aa0000a0546008b854e000516b8008b054600da
:101ab000041eb8008b0546000800be000a01be00e7
:101ac0004f06be004f05be004f04be0000000600da
:020000040000fa
:020000040001f9
:101ad000686500006c6c00006f2000002121000090
:0c1ae0003a250000640d00000a00000020
:020000040000fa
:020000040001f9
:101aec00000800000200000000000000cc0800000c
:101afc002400000002000000f408000000f40800bc
:101b0c000900000000020000f608000000f60800c2
:101b1c000e020100000000000000000000000000a8
:101b2c000602020000000000f008000002000000a5
:101b3c0002000000cc080000f208000002000000c7
:101b4c0000000000f408000002000000000000008b
:101b5c00f60800000200000000000000a2080000cf
:101b6c002a0000000200000030313200333435000e
:101b7c0036373800394142004344450046003000b6
:101b8c003132330034353600373839006162630046
:101b9c006465660000286e00756c6c0029000000fe
:101bac0002080000a000000002000000010000007c
:101bbc000000000000000a0000000000000000000f
:101bcc00006400000000000000000000e8030000ba
:101bdc0000000000000010002700000000000000c2
:101bec0000a08600010000000000000040420f0031
:101bfc00000000000000800096980000000000002b
:101c0c000000e100f50500000000000000ca9a0089
:101c1c003b00000000000000e40b54000200000038
:101c2c000000e80076481700000000000010a50036
:101c3c00d4e8000000000000a0724e00180900005b
:101c4c00000040007a10f3005a0000000080c6002b
:101c5c00a47e8d000300000000c16f00f2862300fb
:101c6c00000000008a5d78004563010000006400fc
:101c7c00a7b3b600e00d000000e889000423c700fc
:101c8c008a000000f80800000200000002000000ba
:081c9c0001000000000000003f
:020000040000fa
:020000040001f9
:101ca4000000fa00c4ff2f0064198800c802a800cd
:101cb400c822a900cc22a800c042a900c442a8009e
:101cc400c842a800c862a900c9e2a800c9c2a90004
:101cd400c062a900c462a900c8a2a900cca2a8003d
:101ce400c9a2a800c962a800c942a900c9a2a90042
:101cf400cda2a900c8e2a9004535800004fe2f004a
:101d040004826200b400b300443588005536800074
:101d140004fe2f00048262000430a00054368800c0
:101d240035368000f40f2e00848262000470200097
:101d340005027200343688000080fa0000000600b4
:101d4400841f78003400f80014002000a4018800e7
:101d54000000fa00044080000402e8000440880007
:101d64008560a9000080fa003400f9004f02780071
:101d7400004006000400fa000002eb00243a880048
:101d840030000700c6ff07002535800004fe2f0041
:101d9400048262000410a0002435880015368000f7
:101da400f40f2e00848262000430200005027200c9
:101db4001436880070f9070004c02c00040f780062
:101dc400d4f5280014079800820020009e0090009b
:101dd4001e007800a9f90700f0f72f006ef907003c
:101de4009560a80000402200410f20000700070072
:101df40004408000841f780084d62800841f780063
:0c1e0400b2f90700e4875700f6ff370032
:020000040000fa
:020000040001f9
:101e1000f03fb1000180b10006003500ee0309007b
:101e200000000000403fb1000180b100fbff3d0019
:101e30001000b000203fb000020035000080090013
:081e4000000000000000060094
:020000040000fa
:020000040001f9
:101e48000000fa000002eb00243a88000080fa0043
:041e58000000060080
:020000040000fa
:020000040001f9
:0457f000ffff0000b7
:020000040000fa
:020000040001f9
:0457f8008f99000085
:020000040000fa
:020000040001f9
:0457fc007f3f0000eb
:00000001FF
